:0400000081EF00F09C
:100008009948994899489948400097484000994824
:1000180099489948994899489948994899489948D0
:1000280099484000400040009948994899489948A3
:1000380099489948994899489948994899489948B0
:1000480099489948994899484000400099489948E2
:100058009948994899484000994899489948994831
:100068009948994899489948994899489948994880
:100078009948994899489948400099489948994811
:100088009948994899489948994899489948994860
:100098009948994899489948400099484000400033
:1000A8009948994899489948994899489948994840
:1000B8009948994899489948994899489948994830
:1000C8009948994899489948994899489948994820
:1000D8009948994899489948994899489948994810
:1000E8004000994899489948400040004000400025
:0E00F8009948994899489948FF0096EF90F072
:10BFC800000000000000000000000000008FE6FDF7
:10BFD80070E6F8B2FFFFFFE6FE80E6FFEDD600222E
:10BFE8008D005CE6F600E6F741E6F401E6F505E6C5
:10BFF800F173B0FB9F8FE6F00A56FAEFAF08FA56D6
:10C00800E0086BF908F056FAF7AF08FA56E008AFFF
:10C0180018FA56E1106BF909F056FAEFAF8D005F88
:10C028008D00658D01318D006C0F571EB32C803C3F
:10C038004529FE39FF8D36236C037CA84C6B2C8078
:10C048003C45C206D202A0E2A0E600E4ED00812948
:10C05800FE39FFD60790D6131B8C809CF7D2088C2C
:10C06800819C46D2082C813CAA18FCA0E219FC0845
:10C07800E24203CF6D00C7C20248E060E0D202C2CC
:10C0880082A208D2426D00A818FC80E219FC6C81DB
:10C098007CA9D60A3D7D013D6CFF7CCE8C809CFC42
:10C0A800D228A0E8D238023712268C809CA7D22842
:10C0B800A0E8D238D607258C809CA7C228A0E8C261
:10C0C800386CFF7CEF023712266C817C4608E3222D
:10C0D8000738E008E2320628E070E370E22C013C01
:10C0E80056D6210250E250E3D62E8D2C013C47D67D
:10C0F8002102E6FE80E6FFB3D607908D056A2C0183
:10C108003C96D621028D01442042797465732066DD
:10C118007265650D0A00005A383020426173656403
:10C12800205A382042415349432056657220342E04
:10C1380037620D0A436F7079726967687420284303
:10C14800292031393738206279204D6963726F733D
:10C158006F66740D0A00004D656D6F727920736902
:10C168007A65206E6F7420656E6F7567680D0A5466
:10C1780068652073797374656D2069732073746FB3
:10C18800707065642E0D0A00002B982D0C2BB6805C
:10C19800481E5526941EC230A6323228FA314B3238
:10C1A800ED32F43376339C27013432809E24F0201C
:10C1B8001F261F250C252B34793573254A25AA25DA
:10C1C800BCC54E44C64F52CE455854C4415441C9CB
:10C1D8004E505554C4494DD2454144CC4554C74F9F
:10C1E800544FD2554EC946D24553544F5245C74F66
:10C1F800535542D2455455524ED2454DD3544F50C3
:10C20800CF5554CF4ECE554C4CD7414954C44546D2
:10C21800D04F4B45C44F4B45D3435245454ECC496F
:10C228004E4553C34C53D749445448CD4F4E4954B7
:10C238004F52D34554D245534554D052494E54C316
:10C248004F4E54CC495354C34C454152C34C4F41B3
:10C2580044C353415645CE4557D4414228D44FC6CE
:10C268004ED3504328D448454ECE4F54D35445500E
:10C27800ABADAAAFDEC14E44CF52BEBDBCD3474E14
:10C28800C94E54C14253D55352C65245C94E50D0D7
:10C298004F53D35152D24E44CC4F47C55850C34F39
:10C2A80053D3494ED4414EC1544ED045454BC44555
:10C2B800454BD04F494E54CC454ED3545224D641C9
:10C2C8004CC15343C3485224C8455824C2494E243C
:10C2D800CC45465424D24947485424CD4944248067
:10C2E8000E550BF815BE113E13E11A5214281163AE
:10C2F80010B51079124E0DC5108610F211420E4D70
:10C3080026A312260F0826A91ED02709344A11424F
:10C31800340F33FE3403362080A180A412760EC475
:10C328000ADC0FD4114211420722792E5D79273099
:10C338007C29787C2A387F30B05019004618FA4E8C
:10C3480046534E52474F4446434F564F4D554C4225
:10C358005344442F304944544D4F534C5353544342
:10C368004E55464D4F4858424E8D01318D0F7BFF3B
:10C37800FFAF26E00038E008E236E00028E008E4F5
:10C3880036E00048E00C00AF000000354ACA993991
:10C398001C76982295B3980ADD479853D199990A43
:10C3A8001A9F9865BCCD98D6773E9852C74F80FFA4
:10C3B800FFAF01FF1C000000140014000000008DF6
:10C3C800097F8D00008D00008D000081AAFFFE818D
:10C3D80047204572726F720020696E20004F6B0D06
:10C3E8000A0000427265616B002C003C0404FFE304
:10C3F80014FEE2C20218FCA0E219FCA6E0816B015F
:10C40800AFC252A0E2C242A0E270E370E238E5286F
:10C41800E408E6420788E698E768E278E328E8381F
:10C42800E96D047288E698E768E278E328E838E975
:10C43800D60A3D4C005C0D50E250E3EB01AF0235EB
:10C4480012248D0432D604C670E570E450E850E931
:10C4580070E370E228E838E950E450E5D60A3DC2B6
:10C4680002D204EB01AF80E480E28D049B70E3709C
:10C47800E28C819C27C228A0E8C2384C0002351201
:10C4880024023512248B0470E370E20CD0220338A6
:10C49800E00CFF32027D04E628E004FFE314FEE22C
:10C4A80050E250E3FB01AF7C0C8D05198C819C1682
:10C4B800C228A0E8C2388C809CA9D228A0E8D2382B
:10C4C8007C028B167C148B127C008B0E7C128B0AE0
:10C4D8007C228B067C0A8B027C18D607908C809C69
:10C4E80092D208D613042C033C7E68E00C3FD60A8F
:10C4F8006F02371226C202D60A6FD60DADD60A6F62
:10C508002C043C10D621028C809CA9C228A0E8C229
:10C51800386CFF7CFED60A3D6D006C08E252030EB3
:10C528006B03D62E7E8B0450E450E5B2008C809CC1
:10C5380092D208D613042C043C1CD621022CFF3CB2
:10C54800FF8C809CA9D228A0E8D238D6097F7D0527
:10C558007CD60DAD0E00E06D057C18FC70E170E036
:10C56800D60F8070E770E6D607F048E050E650E74F
:10C5780050E050E119FCFD0D6370E770E670E5705E
:10C58800E4B2008C819C19D208D60DAD420018FC8B
:10C5980070E170E0D606D97D05E750E050E119FC5E
:10C5A80070E170E06D10EDCF70E570E4FD06208855
:10C5B800E698E768E278E328E838E98C819C23C2AA
:10C5C80028A0E8C238C206D204A0E4A0E6D60A3DF4
:10C5D800ED060428E438E58C819C23D228A0E8D213
:10C5E8003850E650E750E050E119FC6D068F8C8119
:10C5F8009C23C228A0E8C23850E850E970E370E2F2
:10C6080028E838E950E450E50235122470E370E276
:10C61800D6048450E250E38C819C23D228A0E8D22F
:10C628003888E698E768E278E328E838E9D22250C3
:10C63800E650E7A0E2A0E2D272A0E2D262A0E26CE9
:10C64800807CAEC206D202A0E2A0E64200ED0682DD
:10C65800D60743A0E288E698E768E278E328E83856
:10C66800E928E638E7C202A0E2C21242016D057C61
:10C67800A0E2A0E2A0E2B200C282A20818FCA0E2F6
:10C6880019FCED06B788E698E768E278E328E83809
:10C69800E9D272A0E2D2628D06A08C809CABC2283F
:10C6A800A0E8C23848E258E3C202A0E2C21242013E
:10C6B80018FC80E219FCEB01AFA0E2A0E2C202A0E4
:10C6C800E2C22238E0D60A3D28E438E5C20218FC66
:10C6D800A0E219FCC22238E0EFEB01AFEF7B01AF1B
:10C6E8008D06E36B01AF8C809CABC228A0E8C238F2
:10C6F800B200D202A0E2D202A0E28C819C23D2280E
:10C70800A0E8D2388C809CABC228A0E8C23880E26E
:10C718008C819C1BD228A0E8D2388C809CFCC22833
:10C72800A0E8C2388C819C10D228A0E8D238B20088
:10C73800D60DC58C819C23C228A0E8C2388C819C68
:10C7480025D228A0E8D2388C819C27D228A0E8D20C
:10C758003850E450E58C809CA7C228A0E8C238294C
:10C76800FE39FF2C813C008C809CFED228A0E8D2A8
:10C7780038B20038E028E08C819C21D228A0E8D289
:10C78800388C819C18D2088C819C2BD228A0E8D2A6
:10C798003870E370E270E570E48C819C1BC228A0BD
:10C7A800E8C238AF0C3FD60A6F0C20D60A6F8D80CE
:10C7B8009BB2008C809CFBD2085C056C807CAEC26E
:10C7C80002A6E0206D08F048E0A6E0226D091E42AE
:10C7D800006D09288C809CFBC2084200C202ED084B
:10C7E800F0A6E03F0C9E6D08F0C202A6E0307D087E
:10C7F80036A6E03C7D08F070E770E66C017CFF70BF
:10C80800E570E44C085CDA70E570E44C7FC202A67F
:10C81800E0617D085FA6E07BFD085F56E05FD2021D
:10C82800C25288E698E768E278E328E838E9A0E2A7
:10C83800C2124201DD086D4EC20256E07FEB01AF25
:10C84800A205ED086D88E698E768E278E328E838FD
:10C85800E970E370E2A0E6C20642005D08C558E050
:10C8680008E4A6E088ED08ACD60DAD80E2A0E2C2EF
:10C8780002A6E0617D08B956E05FA2056D089450F4
:10C88800E250E38D085F58E450E050E119FC88E677
:10C8980098E768E278E328E838E9AF88E698E76837
:10C8A800E278E328E838E908E550E450E550E65036
:10C8B800E7A0E2D206A0E65E26E03A6D0903A6E00C
:10C8C80049ED09098C809CFBD20826E054ED07FE4F
:10C8D80048E0C2024200CF6D0928A2046D08F0A00A
:10C8E800E2D2065EA0E68D09112C803CADD206A0EE
:10C8F800E6D206A0E6D206AF8C809C91C208420020
:10C90800CF0C008C809C91D208ED095500E46D098C
:10C918007FD60A6F8B0200E418FC80E219FC6D09CF
:10C9280076C202D60A6F8D098D00E418FC80E219E0
:10C93800FCD60A6FED098DD60A6FD6131B8D097FB9
:10C948002C803CAE4C01B2008C809C91D208D60A57
:10C95800BF58E0A6E07F6D09378C809C91C20842E1
:10C96800006D09B10C00D60A6FB200CF8C809C9183
:10C97800D20808E5A6E0076D0A18A6E003EB03D67F
:10C98800131BDFEB01AFA6E00D6D1313A6E0156DC9
:10C998000979A6E0406D0976A6E05F6D0968A6E012
:10C9A800086D0968A6E012ED0A1270E570E470E7F8
:10C9B80070E670E370E21C00D212D6362E2C803C52
:10C9C800AED6210250E250E350E650E750E450E57D
:10C9D8008D098DA6E0207D098D08E4A6E0490C07A5
:10C9E800FD0A3508E5D2528C819C19D208A0E24E86
:10C9F800D60A6F8D098DD60A6F0C088D0A2F08E2AA
:10CA080022066B01AF08E32207AFC20250E850E9E3
:10CA180070E370E228E838E9C282A0E2A20850E890
:10CA280050E970E370E228E838E96D0DAD8D04FF38
:10CA380018FC70E170E08C809C92C2084200CFED37
:10CA4800217D50E050E119FC70E570E470E0A6E04B
:10CA5800207D0AB58C809C8FC20848E08C809CF8A9
:10CA6800C2084E6D0AAE00E4A204EB03D6131B0EF7
:10CA78008C809CF8D20850E050E450E5D6361DAFC3
:10CA8800D633FA56E07FA6E00F6B01AF8C809C92FC
:10CA9800C20860E08C809C92D208B200AFD60F80AA
:10CAA8006B01AF50E450E5D606D970E570E4D60BBB
:10CAB8006950E250E3C252A0E2C242A0E208E44256
:10CAC800056D056AD60B86D60E1C70E570E4D61384
:10CAD8001BC272A0E2C262A0E270E370E288E6982C
:10CAE800E768E278E328E838E9D62E8D0C2050E292
:10CAF80050E3D60A6FC202A0E242006D0AF0DD0BD5
:10CB08003126E07F58E06C027C00C206A0E64200B5
:10CB1800DD0B4900E5ED0B4956E07FD60A6FC206EA
:10CB2800A0E64200DD0B578D0B3470E370E28C8079
:10CB38009C95C228A0E8C2388C809C93D228A0E893
:10CB4800D23850E250E3AF70E370E270E770E68CE1
:10CB5800809C93C228A0E8C2386CFF7CFF12371271
:10CB6800268C809C93D22818FCA0E819FCD2385057
:10CB7800E650E750E250E35B01AF70E370E28C806F
:10CB88009C95C228A0E8C2388C809C93D228A0E843
:10CB9800D238D633FAA6E0036D0BE150E250E38DAC
:10CBA8000B868C809C95C228A0E8C2388C809C9308
:10CBB800D228A0E8D2388D01370C648C819C18D219
:10CBC80008D6116350E450E570E370E2D6113E8C4C
:10CBD800819C14D228A0E8D2382C003C0204FFE340
:10CBE80014FEE2D6043250E650E7ED0C600235122E
:10CBF8002470E770E680E2C26280E2C272A0E2A01E
:10CC0800E270E370E28C819C14C228A0E8C238D696
:10CC18000A3D50E250E3ED0C2250E650E729FE3978
:10CC2800FF88E698E768E278E328E838E95C08D600
:10CC380004AC70E370E28C819C14C228A0E8C2386E
:10CC480050E850E970E370E228E838E970E370E2F0
:10CC58008C809CA9C228A0E8C23850E850E970E34B
:10CC680070E228E838E9D61680D60A49A6D6167D95
:10CC780070E370E2D62C0350E250E370E470E57084
:10CC8800E670E74C815C0068E578E6C202A6E0AB96
:10CC98000C01ED0CE8D60DADD6167D70E370E2D62A
:10CCA8002C03D62B7650E250E370E470E570E67002
:10CCB800E718FC70E070E370E28C819C1BC228A02E
:10CCC800E8C23850E850E970E270E328E838E94CE7
:10CCD8008170E4D60E1C8C819C1BD228A0E8D23827
:10CCE800C202A6E03A6D0D634200ED04FFA0E2C265
:10CCF80002A0E2C21242016D0E6FA0E2C272A0E26F
:10CD0800C26288E698E768E278E328E838E98C8028
:10CD18009CA9D228A0E8D23888E698E768E278E3A8
:10CD280028E838E9D60DAD6C0D7C1270E770E6EB9B
:10CD380001AF26E0807D1163A6E025FD04FF90E0A9
:10CD480058E04C0088E698E768E278E328E838E994
:10CD58002C033C1F02351224C242A0E2C25270E5E5
:10CD680070E488E698E768E278E328E838E9A0E222
:10CD7800C202A6E03A7B01AFA6E0206D0DADA6E0A9
:10CD880030EF0E00E0AF88E698E768E278E328E83D
:10CD980038E98C809CABC22818FCA0E819FCC23882
:10CDA8006D0E0388E698E768E278E328E838E9D664
:10CDB8000F8070E370E2D606D928E438E550E650D3
:10CDC800E7FD10ED80E28C819C29D228A0E8D238BA
:10CDD80088E698E768E278E328E838E9AFD60049BA
:10CDE800EB01AFD6003CA6E01B6B1BA6E0036B165D
:10CDF800A6E0136B01AFD6003CA6E011EB01AFA68D
:10CE0800E0036B0A8BF00CFF8C809C9AD2086B01B4
:10CE1800AF46E0C08B036B01AF8C819C1BD22818F6
:10CE2800FCA0E819FCD2388B0346E0FF50E450E53B
:10CE38008C809CA9C22818FCA0E819FCC23818FCF0
:10CE480070E170E008E352020E6D0EA98C819C1F00
:10CE5800D228A0E8D2388C819C1BC228A0E8C2380E
:10CE68008C819C21D228A0E8D238B2008C809C9278
:10CE7800D208D6130450E050E119FC2C043C22EDF2
:10CE880005438D056A8C819C21C228A0E8C2380818
:10CE9800E242037C206D051988E698E768E278E3AA
:10CEA80028E838E98C819C1FC22818FCA0E8C23801
:10CEB8008C809CA9D228A0E819FCD23888E698E78B
:10CEC80068E278E328E838E9AFD626EB6B01AF8C47
:10CED800809C8ED208AF70E370E28C809C97C22849
:10CEE800A0E8C2384C0058E0023512248C809C9788
:10CEF800D22818FCA0E819FCD23850E250E3AFC29F
:10CF080002A6E041FB01AFA6E05BEFAFD60DADD6C0
:10CF1800167DD62B765D0F7B8C819C34C208A6E0EB
:10CF2800907D2CBC4C905C806C007C0070E370E2BF
:10CF3800D62C5A50E250E368E5EB01AF7C088D052A
:10CF48001918FC80E219FC6C007C00D60DAD7B0141
:10CF5800AF70E370E270E02C193C98D60A3D7D046E
:10CF6800FF28E638E7023712260233122202371268
:10CF7800260233122250E026E03078E06C000237B7
:10CF8800122688E698E768E278E328E838E950E26C
:10CF980050E38D0F8A6D074FD60F4E80E2D60DAD48
:10CFA80070E370E28C809CFCC22818FCA0E819FC95
:10CFB800C2386D102350E250E3D60A492C70E7704E
:10CFC800E6D60F4E80E2D60DADED04FF50E850E9ED
:10CFD80070E370E228E838E988E698E768E278E3E1
:10CFE80028E838E908E3220778E008E2320668E032
:10CFF8007D04E670E370E28C819C23C228A0E8C21D
:10D00800384C005C2802351224D60A3DFD04E68817
:10D01800E698E768E278E328E838E98C809CA7D2AC
:10D0280028A0E8D23850E250E38C809CFCD228A09B
:10D03800E8D23850E250E38D074F6D0743D6074FCB
:10D048004C0D5C128D10B15C03D604AC50E450E575
:10D0580070E370E270E370E28C809CA9C228A0E8BB
:10D06800C23850E850E970E370E228E838E90C8CDF
:10D0780070E070E570E4D60F80D6114270E370E27C
:10D088008C809CA9C228A0E8C238D60A3D50E2503C
:10D09800E318FCA0E219FCFB03D606E37B03D606E3
:10D0A800D928E438E518FC80E219FCFB01AF7C0EB6
:10D0B8008D05196B01AF6CFFD6042829FE39FFA630
:10D0C800E08C7C04ED051950E250E38C809CA9D2D9
:10D0D80028A0E8D238A0E208E24203ED11288C81AA
:10D0E8009C19C2084200ED05662C0D3C1250E85010
:10D0F800E970E370E228E838E98B0450E250E35C19
:10D108003A8B025C004C0008E558E448E0C2024251
:10D1180000EB01AFA204EB01AFA0E2A6E0226D1183
:10D12800468D114CD61A60D60A49B470E770E68C61
:10D13800809CFAC20818FC70E170E0D616B850E07E
:10D1480050E119FC50E850E970E370E228E838E94A
:10D158008C819C1BD22818FCA0E819FCD238C0E0AE
:10D16800D616866D121670E370E28C819C31C23837
:10D17800A0E8C22870E370E2A0E2A0E2C272A0E2D6
:10D18800C2628C809CABC228A0E8C238D60A3DFD9A
:10D1980011F18C809CA7C228A0E8C238D60A3D505D
:10D1A800E650E7FD12072C813C0CD60A3DFD12071C
:10D1B8008B0450E650E7D624C588E698E768E278FD
:10D1C800E328E838E9D62033D624C550E250E3D620
:10D1D8002C2450E250E3AF70E370E2D62C2050E6E6
:10D1E80050E750E250E3AFD626EBC20248E0A6E093
:10D1F8008C6D1239D60A498880E258E700E508E4C0
:10D208006D0D71D60F86A6E02C6B01AF8D123BD643
:10D2180016B8C202A6E0886D125FD60A49A980E254
:10D22800D61680D62B766D1142D60DAD7D10B58DF4
:10D238000D6E80E2D60DAD6D131BEB01AFA6E0A518
:10D248006D1371A6E0A86D137170E370E2A6E02C6F
:10D258006D134EA6E03B6D13AA50E450E5D616B800
:10D2680070E370E28C809CFAC2084200CFED12F89D
:10D27800D62EA8D620771C20D2128C819C31C23899
:10D28800A0E8C228C2828ED2828C819C31C238A08A
:10D29800E8C2288C809C8FC20848E04E6D12F24E7E
:10D2A8008C809CF8C208C282020800E0A2047B03BA
:10D2B800D6131BD62105B200CF6B03D6210550E249
:10D2C80050E38D12718C809CF8C2084200CFEB01AC
:10D2D800AF8D131B1C00D2122C803CAD0C0DD60A4E
:10D2E8006F0C0AD60A6FB200CF8C809CF8D2088CDB
:10D2F800809C8EC20800E0EB01AF18FC70E170E082
:10D30800B200CFD60A6F50E050E119FC8D13348C6F
:10D31800809C90C20848E08C809CF8C208A2047BDC
:10D3280003D6131BFD13AA26E00EFD136660E08DDD
:10D33800139D18FC70E170E0D626E8D60A492980CA
:10D34800E250E050E119FC26E0A870E370E26D13AA
:10D35800968C809CF8C20860E00207FD13AA0E486C
:10D36800E00C20D60A6F00E4ED13A250E250E3D699
:10D378000DAD8D12793F5265646F2066726F6D2016
:10D3880073746172740D0A008C819C1AC208420081
:10D39800CFED04EB50E450E52C133CB4D621028DBC
:10D3A80007D8D61FE7C202A6E0220C008C809C9208
:10D3B800D208ED1404D62079D60A493B70E370E20E
:10D3C800D621058B0470E370E2D607E350E450E5FC
:10D3D8007D0E68A0E2C20280E2420070E570E46D52
:10D3E800113A1C2CD2128D143B70E370E28C819C94
:10D3F80029C228A0E8C23846E0AF8B02B2008C816F
:10D408009C1AD20850E850E970E370E228E838E93D
:10D418008D1456D60A492CD61A6050E850E970E3A4
:10D4280070E228E838E970E770E6C202A6E02C6DE1
:10D4380014A38C819C1AC2084200CFED15710C3FD1
:10D44800D60A6FD607E350E650E750E450E57D0E64
:10D4580068A0E2C20280E2420070E570E46D113A11
:10D4680070E770E68C809CFAC20842006D14F4D60E
:10D478000DAD68E048E0A6E0226D14CE8C819C1AC0
:10D48800C208420068E06D14CA6C3A4C2C80E2D69F
:10D49800207D88E698E768E278E328E838E92C15E3
:10D4A8003C0D50E850E970E370E228E838E970E78D
:10D4B80070E68D11A5D60DADD62D7E50E850E970D9
:10D4C800E370E228E838E9D62C2050E250E380E205
:10D4D800D60DAD6D151BA6E02CED13C750E850E92D
:10D4E80070E370E228E838E980E2D60DADED145219
:10D4F80050E650E78C819C1AC208420088E698E7FB
:10D5080068E278E328E838E9ED0E0570E770E6C2CE
:10D518001242012C153C606B03D6210250E250E305
:10D52800AF3F45787472612069676E6F7265640DEC
:10D538000A00D6113E4200ED15B2A0E2C202A0E2F6
:10D54800C21242017C066D0519A0E2C272A0E2C2B5
:10D558006288E698E768E278E328E838E98C819CF5
:10D5680016D228A0E8D23888E698E768E278E32857
:10D57800E838E9D60DADA6E083ED15718D14A36CDE
:10D58800007C006B03D61A608C819C1BD228A0E813
:10D59800D238D60428ED050729FE39FF88E668E762
:10D5A80078E870E770E6C20218FCA0E219FC18FCE3
:10D5B80070E170E070E770E6D62BEB50E850E97048
:10D5C800E370E228E838E988E228E338E870E37095
:10D5D800E2D6272550E250E3D62C2050E250E3D67D
:10D5E8002C0770E370E2D62C5A50E250E350E45016
:10D5F800E52204D62C0788E448E558E888E668E779
:10D6080078E86D166188E698E768E278E328E838F4
:10D61800E98C809CA9D228A0E8D23838E528E48D86
:10D628000D0E29FE39FF8C819C1BC228A0E8C23848
:10D63800C202A6E02CED0D12D60DADD615C2D61637
:10D64800B84200CF8B01DF8C809CFAC20812001808
:10D65800E0C0E1C0E1C0E1C0E1B21088E1C0E1C0D2
:10D66800E1B21888E1C0E1B21856E101EB044200CA
:10D67800CFAF8D0517D60A492880E26C0070E77095
:10D68800E65C01D604ACD617958C819C1DD228A0E7
:10D69800E8D2388C819C1DC228A0E8C23850E450DA
:10D6A800E508E4A6E0787B03D61680C2026C002663
:10D6B800E0B37D1718A6E003FD1718A6E00110E0F7
:10D6C800B206A20668E07D04FF8C819C12D228A0D5
:10D6D800E8D238D60DAD8D16EE08E64200ED197188
:10D6E800C2028C819C12D228A0E8D23826E0ACFB7A
:10D6F80001AFA6E0077B01AF78E08C809CFAC208F6
:10D7080000E04207CF08E76D239990E0020778E030
:10D718002C033C690237122608E4C262A2067B0188
:10D72800AFA0E2D6168070E570E44C165CD270E5C6
:10D7380070E448E758E6D62BC878E468E5C242A00A
:10D74800E2C252A0E270E570E48C819C12C228A06B
:10D75800E8C2388D16BCB200CF8C809CFAD208D6AD
:10D768000DAD7C246D05197D2D7ED60F3EFB66A67A
:10D77800E026EB14D60DADA6E0486D34FBA6E042DA
:10D788006D35B97C026D0519A6E0AC6BC9A6E02E13
:10D798006D2D7EA6E0AD6B1FA6E0226D2079A6E078
:10D7A800AA6D1A27A6E0A76D1F2D26E0B6FB56D650
:10D7B80016B4D60A4929AF6C7DD616BC8C819C1D3F
:10D7C800C228A0E8C23870E370E2D62BBCD6168017
:10D7D80050E250E3AFD61A6070E370E288E698E74B
:10D7E80068E278E328E838E98C819C31D238A0E8EF
:10D7F800D2288C809CFAC2084200CFEB03D62BEBD0
:10D8080050E250E3AF4C0090E058E070E570E4D689
:10D818000DAD08E5A6E0317D18B3D616B4D60A4991
:10D828002CD6168588E698E768E278E328E838E990
:10D838008C819C31C238A0E8C22850E850E970E3D6
:10D8480070E228E838E970E370E288E698E768E271
:10D8580078E328E838E9D626EB88E698E768E2789E
:10D86800E328E838E950E850E970E370E228E8383E
:10D87800E98D18CAD617EE50E850E970E370E2282F
:10D88800E838E96C187C0C70E770E64C015CC8025B
:10D89800351224C242A0E2C23228E430E200E6A6F1
:10D8A800E0ADEB01AFA6E02DEB01AF6EA6E02BEBF0
:10D8B80001AFA6E0ACEB01AF80E2AF46E0AFCF8BA3
:10D8C80003B200CF18FC70E170E0D61680D60F576F
:10D8D80050E050E119FC88E698E768E278E328E828
:10D8E80038E950E450E550E850E970E370E228E880
:10D8F80038E988E698E768E278E328E838E9D62B3B
:10D90800EE18FC70E170E0D60F5750E050E119FCBA
:10D9180050E450E508E52C1E3CB1ED196652075855
:10D92800E008E4520630E2420758E008E44206CF35
:10D9380030E22C193C8F8C809CFAC208C0E008E6C3
:10D9480010E078E06C6408E4A2067B01AF8D1765EF
:10D95800199108E54200CFC0E050E450E550E65088
:10D96800E718FC70E170E0D616862C1A3C1670E3B6
:10D9780070E26D2C5AB200CF8C809CFAD20870E706
:10D9880070E6D62468C202A0E2A0E2C252A0E2C2B7
:10D998004250E650E770E570E470E0D6247ED62C5D
:10D9A8000750E068E050E250E308E74206CFEB0199
:10D9B800AF08E626E001FB01AFB200CFA2070E7B5D
:10D9C80001AF00E600E7C204C282A0E2A0E4A20818
:10D9D8006D19E8EF8D2B910E120050E450E55204BA
:10D9E80006E0FF32008D2B9B6C5AD616BCD61680EB
:10D9F800D60F5708E760E058E008E660E0D61EB1A9
:10DA080050E450E58D16D280E2D60DADEB01AFD6CD
:10DA18000A492C4C1A5C4670E570E446E0AFCF8B9F
:10DA280003B200CF8C809CF9D208C242D60F3E7D4B
:10DA380004FFB200CF58E08C809CFAD208D60DAD16
:10DA48007D1A88D60F3E7D1A9658E0D60DAD7D1A00
:10DA58008AD60F3EFD1A8A26E024ED1AAC0E8C8079
:10DA68009CFAD208E0E0020558E0D60DAD8C819C06
:10DA780018C20800E06D1C6DDD1AC2C20226E0283B
:10DA88006D1BEBB200CF8C819C18D20870E370E25A
:10DA980068E478E58C819C2BC228A0E8C238D60AB5
:10DAA8003D6C817C2D6D2A1C8C819C25C228A0E8A8
:10DAB800C23888E698E768E278E328E838E98C8194
:10DAC8009C23C228A0E8C238D60A3D6D1B3208E55F
:10DAD800C282A0E22208ED1B1E08E4C282220818B6
:10DAE800FCA0E219FC6D1BBDA0E2A0E2A0E2A0E24E
:10DAF8008D1B0750E250E350E850E970E370E228CC
:10DB0800E838E970E770E66C187C17D60A3D50E6ED
:10DB180050E76D1BCE50E850E970E370E228E83812
:10DB2800E970E370E270E570E44C005C068C819C5F
:10DB380027C228A0E8C23870E370E20235122450E8
:10DB4800E450E570E370E2D6048450E250E38C813F
:10DB58009C27D228A0E8D23828E438E58C819C2577
:10DB6800D228A0E8D23880E21C00D212D60A3DEDB5
:10DB78001BA550E650E7D272A0E2D262A0E288E686
:10DB880098E768E278E328E838E950E250E3AF8C98
:10DB9800819C34D2082C043C1B8C819C31D23818CF
:10DBA800FCA0E819FCD22850E250E3AF70E370E221
:10DBB8008C809CF9C228A0E8C23850E850E970E38C
:10DBC80070E228E838E968E070E670E570E4D60F9E
:10DBD8004B50E450E550E088E698E768E278E3289F
:10DBE800E838E950E850E970E370E228E838E9706D
:10DBF800E370E288E698E768E278E328E838E90E17
:10DC080068E0C202A6E02C6D1C07D60A49298C815F
:10DC18009C1DD228A0E8D23850E250E38C809CF9B1
:10DC2800D228A0E8D2387C0070E770E68B0A70E34F
:10DC380070E218FC70E170E08C819C25C228A0E895
:10DC4800C2388B040237122688E698E768E278E340
:10DC580028E838E98C819C27C228A0E8C23888E6E1
:10DC680098E768E278E328E838E9D60A3D6D1CF2BF
:10DC7800C202A0E2A205ED1CBCC202A20418FCA0CC
:10DC8800E2C272A0E2C262A0E219FCED1C838C80A1
:10DC98009CF9C2084200CFED050B50E050E119FC99
:10DCA80048E258E36D2A1CC28222086D1DE67C10EA
:10DCB8008D05196C007C0450E050E119FC6D0F7B58
:10DCC800D252A0E2D242A0E258E0D604ACA0E2A030
:10DCD800E28C819C12D228A0E8D238D252A0E28CE1
:10DCE800809CF9C20810E008E54C005C0BFD1D356E
:10DCF80050E450E5A0E4D252A0E2D242A0E218FCDF
:10DD080070E170E070E370E2D62D3D88E698E76830
:10DD1800E278E328E838E950E250E350E050E119AE
:10DD2800FC00E0ED1D2818FC70E170E048E658E7BB
:10DD380088E698E768E278E328E838E902371226A7
:10DD48007D04E6D604C68C819C27D228A0E8D23868
:10DD580080E21C00D212D60A3DED1D8FA0E468E0D7
:10DD68008C819C12C228A0E8C238C27288E698E763
:10DD780068E278E328E838E90233122202351224EF
:10DD880088E698E768E278E328E838E918FC80E252
:10DD980080E219FCD272A0E2D262A0E219FC50E043
:10DDA80050E119FC7D1E4648E058E0C202A0E28B13
:10DDB8000450E250E3C272A0E2C262A0E250E8500E
:10DDC800E970E370E228E838E970E0D60A3DFD1C06
:10DDD800ED70E370E2D62D3D50E650E7023712268B
:10DDE80050E000E048E258E3ED1DF0023312220251
:10DDF80033122250E450E50235122488E698E76889
:10DE0800E278E328E838E98C819C1DC22818FCA038
:10DE1800E819FCC238AF8C819C27C228A0E8C23818
:10DE280088E698E768E278E328E838E92C003C00BF
:10DE380004FFE314FEE28C809CFAC2084200CF6D16
:10DE48001EA7D62468D6219F8C809CA7C228A0E84C
:10DE5800C23888E698E768E278E328E838E98C81F0
:10DE68009C10C228A0E8C23808E3220758E008E25C
:10DE7800320648E568E47C002C803CFAD2724C906B
:10DE88008D2BA18C809CF8C20848E0B200CF8D1E73
:10DE9800B3D62007D61FE74C115C3E70E570E470DE
:10DEA800E770E6D60A4928D61A6070E370E288E679
:10DEB80098E768E278E328E838E980E2C26280E21D
:10DEC800C27250E250E3D61680D60A4929D60A49CA
:10DED800B448E258E350E850E970E370E228E838C3
:10DEE800E9D25218FCA0E219FCD2428D206AD62051
:10DEF8000770E770E6D617EED6168050E850E9703E
:10DF0800E370E228E838E9C272A0E2C262A0E2083F
:10DF1800E64207CF6D050FC202A0E2C22238E070C8
:10DF2800E370E28C819C2BC228A0E8C23850E850EC
:10DF3800E970E370E228E838E98C819C2BD228A0AC
:10DF4800E8D2388C819C2FC228A0E8C23870E370D0
:10DF5800E28C819C2DC228A0E8C23870E370E22CC4
:10DF6800813C2D70E770E6D62C2050E250E3D6169F
:10DF78007D80E2D60DADED04FF50E250E38C819C2C
:10DF88002DD228A0E8D23850E250E38C819C2FD2C1
:10DF980028A0E8D23850E250E38C819C2BD228A0EC
:10DFA800E8D23850E250E3AF70E370E28C809CA96D
:10DFB800C228A0E8C238A0E208E2420350E250E3D7
:10DFC8006B01AF7C168D0519D60A49A70C808C8188
:10DFD8009C18D208C212420148E0D61A6B8D1680EE
:10DFE800D61680D62EA8D62077D624684C255C4332
:10DFF80070E570E4C202A0E2A0E270E370E2D6210C
:10E008002350E250E3C252A0E2C242D6205E70E33F
:10E0180070E238E0D6245450E650E7AFD621232CDE
:10E02800813C0C70E370E2D202A0E2A0E2D272A0BE
:10E03800E2D26250E250E3AF80E24C2268E470E33F
:10E0480070E25CFFA0E2C2025E42006D2097A20669
:10E058006D2097A204ED2083A6E022EB03D60DAD38
:10E0680050E850E970E370E228E838E9A0E288E671
:10E0780098E768E278E328E838E908E5D6205E6C96
:10E08800817C0C8C809CFEC228A0E8C2388C819CC4
:10E0980031D238A0E8D2280C018C809CFAD208D65C
:10E0A8002C24D60A3D8C809CFED22818FCA0E819A6
:10E0B800FCD23850E250E3C2026B01AF7C1E8D05E2
:10E0C80019A0E2D62077D62468D62C077E00E7EB85
:10E0D80001AFC204D60A6FA6E00DEB03D61325A044
:10E0E800E48D210C42008B0650E050E119FC18FC2D
:10E0F80070E170E08C809CA7C228A0E8C23888E64E
:10E1080098E768E278E328E838E98C819C10C2280F
:10E11800A0E8C23860E058E04CFF02351224A0E2C3
:10E12800D60A3D7D21848C819C10D228A0E8D23863
:10E13800A0E288E698E768E278E328E838E950E062
:10E1480050E119FCAF50E050E119FC7C1A6D05193B
:10E15800A20018FC70E170E04C215C2770E570E4C7
:10E168008C809CFCC228A0E8C2388C819C10D228E4
:10E17800A0E8D2382C003C0070E370E28C809CA7A9
:10E18800C228A0E8C23870E370E28C819C00C228E3
:10E19800A0E8C23888E698E768E278E328E838E932
:10E1A8008C809CFEC228A0E8C23888E698E768E21E
:10E1B80078E328E838E9D60A3D4C215CD3ED22C73C
:10E1C8008C819C23C228A0E8C23888E698E768E2D8
:10E1D80078E328E838E98C819C25C228A0E8C23871
:10E1E80088E698E768E278E328E838E9D60A3D6DDA
:10E1F8002244C202A0E2A0E24200CFD622CE8D2263
:10E208000950E450E588E698E768E278E328E838BA
:10E21800E98C819C27C228A0E8C23888E698E7687C
:10E22800E278E328E838E9D60A3D6D2347D62C077B
:10E2380008E770E370E2023512244200CFDD224085
:10E248008C819C12D228A0E8D23850E250E3C25206
:10E258004C000235122402351224A0E288E698E721
:10E2680068E278E328E838E98C819C12C228A0E8A3
:10E27800C23888E698E768E278E328E838E9D60AF9
:10E288003D6D22444C225C9B70E570E446E080C200
:10E298000218FCA0E2A0E2C272A0E2C262A0E219E7
:10E2A800FC5B01AF4200EB01AF48E258E38C819C74
:10E2B80010C228A0E8C238D60A3D28E438E5FB0198
:10E2C800AF50E250E350E850E970E370E228E838D4
:10E2D800E9D60A3D50E850E970E370E228E838E9E9
:10E2E80070E370E228E438E57B01AF50E450E55074
:10E2F800E050E119FC50E050E119FC70E370E27065
:10E30800E770E670E570E4AF50E650E750E250E39E
:10E3180008E34202CFEB01AF80E2C24280E2C25280
:10E3280070E370E280E280E2C2322C0002351224EF
:10E3380068E478E580E248E258E38C819C10C228C2
:10E34800A0E8C238D6048750E250E3D252A0E2D205
:10E358004238E528E480E28D21A970E570E470E395
:10E3680070E28C819C31C238A0E8C22850E850E99C
:10E3780070E370E228E838E9D6179550E850E9705C
:10E38800E370E228E838E9D61685C20270E370E245
:10E398008C819C31C238A0E8C22870E370E2C28246
:10E3A80002087C1C7D0519D6205B50E650E7D62470
:10E3B8007E50E850E970E370E228E838E9D6247224
:10E3C80070E370E28C819C0EC228A0E8C23888E60F
:10E3D80098E768E278E328E838E9D62436D6243680
:10E3E8002C163CC850E850E970E370E228E838E998
:10E3F80070E370E28D20BE50E250E350E850E970BF
:10E40800E370E228E838E9C202A0E2A0E2C252A022
:10E41800E2C24238E03E00E3EB01AFC204D206A0FC
:10E42800E4A0E68D2455D616858C819C31C238A08F
:10E43800E8C22888E698E768E278E328E838E9D669
:10E4480024C588E698E768E278E328E838E96B01AC
:10E45800AF70E770E668E478E580E6C2528C819C8C
:10E4680010C228A0E8C238D60A3DED24C048E00210
:10E478003512248C819C10D22818FCA0E819FCD2F3
:10E488003850E250E3AF8C809CFEC228A0E8C23826
:10E4980080E2C24280E2C25280E280E2D60A3D6B4C
:10E4A80001AF8C809CFED22818FCA0E819FCD23859
:10E4B800AF4C1E5CC870E570E4D62465B200CF6826
:10E4C800E08C809CFAD208C2024200CFAF4C1E5C9E
:10E4D800C870E570E4D624F86D0F7B18FCA0E2A0A4
:10E4E800E2C272A0E219FCC262C206AF0C01D620D9
:10E4F8005BD626EE8C819C0EC23818FCA0E819FC6D
:10E50800C228D27250E450E58D20BED62675B200DE
:10E51800CF50E850E970E370E228E838E958E07035
:10E52800E370E2C202A2047D256D08E48B025C0060
:10E5380070E570E4D6212350E450E550E250E370D2
:10E54800E370E2A0E2A0E2C242A0E2C22238E44CB8
:10E55800000235122448E258E3D6205E38E0D6247B
:10E568005450E650E7D6247E8D20BED6267550E658
:10E5780050E770E770E6C20622048D255088E698B9
:10E58800E768E278E328E838E9C202D626854E0033
:10E59800E46D0F7B70E570E47CFFA6E0296D25E64D
:10E5A800D60A492CD626EBD60A492950E050E1195B
:10E5B800FC50E850E970E370E228E838E94C255C43
:10E5C8005E70E570E400E0C282A2084C007B01AFF7
:10E5D80058E0C2022205A20748E0FB01AF48E7AFB6
:10E5E800D624F86D280578E0A0E2A0E2C202A0E2F5
:10E5F800C22238E070E370E202371226C242D262C9
:10E6080050E850E970E370E228E838E970E570E412
:10E61800C202A6E024ED265CD634FB8B0EA6E025CC
:10E62800ED2667D635B98B03D62D7E50E450E550DC
:10E63800E250E3D242AF88E698E768E278E328E858
:10E6480038E9D60A492950E450E550E650E770E524
:10E6580070E448E7AFD626EE8C809C8CD208D68032
:10E668008B8D1EC8D626D28D804BD626D218FC702C
:10E67800E170E07C0080E2D60DAD6D26C3D60A4974
:10E688002CD626EB50E450E5D6808BB20752046DA9
:10E6980026C7AFD626EB8C809C8CD2088C809C4CED
:10E6A800D208D60A492C8D26EBD60DADD6167DD6C6
:10E6B8000F5108E64200CFED0F7B80E2D60DAD0882
:10E6C800E7AFD60F57C2068D1EC8D6167DD60F5790
:10E6D80070E770E6D60A492CD626EB50E650E7D20A
:10E6E80006AF2C303C7ED62C078D273BD62C078BCB
:10E6F8000850E450E550E650E7D62BBC08E4420049
:10E70800CFEB01AF8C819C34C2084200CF6D2BEE59
:10E718002204FD277D60E00E88E698E768E278E34A
:10E7280028E838E9D62BC888E698E768E278E3282D
:10E73800E838E9D62BEE50E450E550E650E7A6E07D
:10E74800197B01AF18FC70E170E0D62C3428E0503A
:10E75800E050E119FCD628BA4202CF2C813C31DDC9
:10E7680027B9D62875FD283FA0E2C2828ED2826DD5
:10E7780005133C01D628DC8D283FB200CF2204487F
:10E78800E0C202320778E018FCA0E219FCC20232AB
:10E798000668E018FCA0E219FCC202320558E0FB4A
:10E7A80003D6289438E428E7B20048E008E5420098
:10E7B800ED282158E668E228E338E008E426E00876
:10E7C800A6E0E0ED27E9B200CF8C819C34D208AFF7
:10E7D80000E40233122208E610E068E008E51200BF
:10E7E80058E0DD280F08E478E248E342006D283F4E
:10E7F8002C813C34C2820208D202FD2805EB01AF0D
:10E8080008E42C813C344200DB03D6285CC242A0D9
:10E81800E2C20256E080B20558E08D2BEE7E6B0115
:10E82800AF6E6B01AF5E6B01AF5C80C2828ED2822D
:10E838006B01AF8D0513C202020778E018FCA0E255
:10E8480019FCC202120668E018FCA0E219FCC20218
:10E85800120558E0AF2C813C35C20260E0D202B20A
:10E8680000CF38E0220448E008E3320778E008E304
:10E87800320668E008E3320558E0AF4C0026E008AD
:10E888007D28CD48E778E668E55C008D28BC06E081
:10E898000938E0B200CF00E3EB01AF08E5C0E0586B
:10E8A800E0C0E6C0E7C0E48D28D20000008103AADA
:10E8B800561980F122768045AA3882D62B7618E040
:10E8C800C0E1C0E1C0E1C0E1B21088E1C0E1C0E14F
:10E8D800B21888E1C0E1B21856E1016D0F7B2C81B6
:10E8E8003C34C2024C805C356C047CF3220418FC76
:10E8F80070E170E0D24270E770E670E570E4D62708
:10E908003B50E450E550E650E74ED62A402C283CD0
:10E91800E9D6272B2C283CEDD631D04C805C806C76
:10E92800007C00D6273B50E050E119FCD62E574C0E
:10E93800805C316C727C188B0850E450E550E650CE
:10E94800E7D62B76EB01AF3C00D62B0808E58C8187
:10E958009C43D20888E698E768E278E328E838E933
:10E968008C819C44D228A0E8D2384C005C0068E432
:10E9780078E42C273CE370E370E22C293CC970E36F
:10E9880070E270E370E22C813C31C202A0E24200E6
:10E998006D2A2170E370E23C08C0E028E008E5FD3C
:10E9A8002A0B70E370E28C819C44C228A0E8C2382C
:10E9B8000237122688E698E768E278E328E838E91B
:10E9C80050E250E38C819C43C2081205C0E058E035
:10E9D800C0E6C0E7C0E400E308E2ED29D850E25001
:10E9E800E3AF48E778E668E558E0AFD62BC84C8433
:10E9F8005C206C007C00D62BEE50E450E550E650CD
:10EA0800E7D62B766D05033CFFD62B08C2828ED243
:10EA180082C2828ED28280E2C2028C809C5ED20840
:10EA280080E2C2028C809C57D20880E2C2028C80AD
:10EA38009C50D20848E588E698E768E278E328E839
:10EA480038E9B20058E068E078E08C809C62D2082F
:10EA580070E370E270E570E408E3D6804E36E000BB
:10EA6800EFFD2AB68C809C62D20850E050E150E05D
:10EA780050E119FCDF8B0850E450E550E250E30800
:10EA8800E50E00E0DB05C0E08D2841C0E010E01095
:10EA9800E710E610E50233122208E410E48C809CAB
:10EAA80062C20810E0D20808E542064207CFED2A04
:10EAB8008F70E370E22C813C34C28200E8D282502D
:10EAC800E250E3ED2A8F8D051308E44200CF6D2B49
:10EAD8004708E32C813C34C282B208020448E0C0F3
:10EAE800E0B20408E4DD2B4406E080D2026D2A1C63
:10EAF800D62C34D20218FC80E219FCAFD62B7660F3
:10EB0800E050E250E34200CF50E250E3DD28058DAB
:10EB18000513D62C0308E44200CFEB01AF06E00250
:10EB28007D051348E0D6273B2C813C34C2828ED227
:10EB3800826B01AF8D05138C819C34C2084200CFD3
:10EB4800EB01AF8C819C33C208A6E02F8B0260E0FA
:10EB580010E032006B01AF0EAFD62B764C886C00FC
:10EB68007C002C813C3458E0D2424C00A0E21C804E
:10EB7800D21210E08D27DED62B765B01AF2C813CBC
:10EB880033C202B6E080D202AF50EA50EB8C819CCF
:10EB980031C218A0E870E1C218A0E870E1C218A05C
:10EBA800E870E1C21870E170EB70EAAFD62C078C00
:10EBB800819C31D278A0E8D268A0E8D258A0E8D2E7
:10EBC80048A0E8AF2C813C31C27218FCA0E2C262B6
:10EBD800A0E2C252A0E219FCC24218FCA0E219FC51
:10EBE800AF6C817C314C04C206D202A0E6A0E200E0
:10EBF800E4ED2C26AF2C813C33C20290E0DFC0E06C
:10EC0800D202EFC0E0A0E2A0E2D20208E590E0DF85
:10EC1800C0E058E0C0E0C282B208AF08E44200CFCA
:10EC28006D2B762C2B3C8D70E370E2D62B7608E5A5
:10EC3800EB01AF2C813C33C282B20808E5DB01AF9F
:10EC4800D62C87C0E0B205AFA0E208E4C282A208D1
:10EC58006B01AF80E208E5C282A2086B01AF80E2D7
:10EC680008E6C282A2086B01AF80E208E7C28222EE
:10EC7800086B01AF50E250E350E250E3AF48E05870
:10EC8800E068E078E04200CFEB01AF70E370E2D6D5
:10EC98002C03D62C34C282B20828E0DB03D62CFB26
:10ECA8000C982204D628BA08E210E0FB03D6285CA8
:10ECB8004C00FB03D6289450E250E3AF80E608E608
:10ECC80052070E6B01AF18FC80E419FCAF2C813C95
:10ECD80034C202A6E0988C819C31C2087B01AFC285
:10ECE80002D62CBC1C98D21208E718FC70E170E020
:10ECF80008E510E0D627DE50E050E119FCAF2C0003
:10ED08003C0008E44205CFEB01AF0C10023312229D
:10ED18007D1CED88E698E768E278E328E838E902A0
:10ED280033122288E698E768E278E328E838E9FDB4
:10ED38002D78023512247D1CED00E0ED2D4BAFA699
:10ED4800E02D18FC70E170E06D2D92A6E02B6D2D82
:10ED58009280E2D6280548E068E078E060E058E074
:10ED6800D60DAD7D2E21A6E02E6D2DC9A6E045ED70
:10ED78002DCDD60DADD618DCD60DAD7D2E686EED39
:10ED88002DCDB200CF220778E05E5E6D2D9F70E337
:10ED980070E208E722045B03D62E0CDD2DED18FC8B
:10EDA80070E170E0D62A2A50E050E119FC0EED2DF2
:10EDB800D550E650E750E050E119FCEB03D62BBCE8
:10EDC80088E698E768E278E328E838E9AFEB01AF2E
:10EDD80018FC70E170E0D62B5150E050E119FC00AE
:10EDE800E0AF70E770E668E008E4120548E070E517
:10EDF80070E470E370E270E770E6D62B5150E05093
:10EE0800E119FC26E030D62E5750E250E350E4508A
:10EE1800E550E650E78D2D9FD62BC8D62B9B50E4A6
:10EE280050E550E650E78D273B08E790E090E00278
:10EE38000790E0C282020826E03078E08D2DB77096
:10EE4800E370E22C043C17D6210250E250E388E636
:10EE580098E768E278E328E838E9B2004C98D62BBE
:10EE6800A12C213C0070E370E22C813C3670E370E9
:10EE7800E2D62B761C20D212DD2EBE1C2DD2121803
:10EE8800FCA0E219FC1C30D2126D303C70E370E239
:10EE9800DB03D62BBCB200CF18FC70E170E0D63093
:10EEA8004D4C915C436C4F7CF8D62C5A18E0C0E16D
:10EEB800C0E1C0E1C0E1B21088E1C0E1C0E1B21830
:10EEC80088E1C0E1B21856E101EB2550E050E119A4
:10EED800FCD62E0F18FC70E170E08D2EE0D62A2AA1
:10EEE80050E050E119FC0E18FC70E170E0D6304D8E
:10EEF800D627210ED62CBCD62BEE4C035C0650E050
:10EF080050E119FC02050E5D2F54A6E008FD2F54B0
:10EF18000E48E00C0200E000E050E250E318FC70FC
:10EF2800E170E06C307C8200E4ED2F771C2ED21269
:10EF3800A0E21C30D212A0E200E41C2ED212EB0395
:10EF4800D62C1970E570E470E370E270E770E6D6CD
:10EF58002C0350E250E34C2F4E08E7C28222087877
:10EF6800E018FCA0E219FC08E6C282320868E01842
:10EF7800FCA0E219FC08E5C282320858E018FC80BF
:10EF8800E280E219FCFD2F97D6287518FCA0E2193B
:10EF9800FCD62BEE88E698E768E278E328E838E9BB
:10EFA80050E250E3D242A0E250E450E500E5ED2FF4
:10EFB8007700E46D300780E2C202A6E0306D2FF5DD
:10EFC800A6E02E6B03D62C1950E050E119FC6D30E9
:10EFD800461C45D21218FCA0E219FC1C2BD212DDEB
:10EFE80030281C2DD21260E00E4C2F4E26E00AFD70
:10EFF800302A06E03A18FCA0E219FCD24218FCA01C
:10F00800E2D202A0E219FCD25250E250E3AF4C9493
:10F018005C746C237CF7D62C5A50E250E318E0C09D
:10F02800E1C0E1C0E1C0E1B21088E1C0E1C0E1B2F5
:10F038001888E1C0E1B21856E101ED2F1C30E2005A
:10F04800000080A08601102700E803006400000A81
:10F0580000000100002C2B3CBC50E850E970E37024
:10F06800E228E838E930E2D62BC82C303C7ED62B93
:10F07800EB50E450E550E650E7D62B7608E46D31C6
:10F088004BDD30C94200CF6D05034200CF6D280823
:10F0980070E770E670E570E408E546E07FCFD62CAF
:10F0A80003DD310770E770E670E570E4D62D0C508B
:10F0B800E450E550E650E718FC70E170E0D62C5AB1
:10F0C80050E250E308E2C0E050E250E38C819C3308
:10F0D800D23818FCA0E819FCD22850E250E38C8101
:10F0E8009C31D23818FCA0E819FCD228FB03D63092
:10F0F80094EB03D62BBC70E770E670E570E4D62875
:10F10800FA50E450E550E650E7D62980D62BC84C93
:10F11800815C386CAA7C3BD629808C819C34C208DF
:10F12800A6E088FD2B3BD62D0C06E08006E0027D8C
:10F138002B3B18FC70E170E02C283CE9D62725D63B
:10F14800296E50E050E119FC50E450E550E650E7D4
:10F1580018FC70E170E0D62738D62BBC2C313CAFB8
:10F16800D631E96C007C0050E450E558E68D2980E2
:10F1780008402E9474704F2E776E02887AE6A02A83
:10F188007C50AAAA7EFFFF7F7F00008081000000DC
:10F1980081D62BC86C297C7870E770E670E370E242
:10F1A800D62C03D6298050E250E3D62BC8C202A041
:10F1B800E2D62BEB8B0650E050E119FC50E450E509
:10F1C80050E650E700E0EB01AF70E770E670E570DD
:10F1D800E418FC70E170E070E370E2D6298050E238
:10F1E80050E3D62C0770E370E2D6273B50E250E399
:10F1F8008D31F5D62B762C803C655D32D42C803C45
:10F2080087D62BEB2C803C65EB01AFC282020856F7
:10F21800E0074C00D202A0E20200020058E00235EA
:10F228001224D62C0788E448E558E888E668E77889
:10F23800E8D629808C809C64C2080E56E0034C00F6
:10F24800A6E00112048C809C64D2082C323CDD02BA
:10F2580000020058E002351224D62725D62C0308D0
:10F26800E778E5B6E04F58E01C80D21280E2C2424F
:10F278001C80D2122C803C63C2828ED282C20226AB
:10F28800E0ABED32CAD2025E00E67ED627E32C80E0
:10F298003C878D2C20D20280E2D20280E2D2028DFD
:10F2A800329B68B1466899E9926910D175682C3328
:10F2B8003C59D62725D62BC84C835C496C0F7CDB80
:10F2C800D62BEE50E450E550E650E7D62A40D62B30
:10F2D800C8D62D0C50E450E550E650E7D627382C18
:10F2E800333C5DD6272BD62B76DFDD3335D6272169
:10F2F800D62B764200CF18FC70E170E05B03D62B6A
:10F30800BC2C333C5DD6272550E050E119FC7B032B
:10F31800D62BBC2C333C618D31D0DB0F49810000EA
:10F32800007F05BAD71E866426998758342387E05C
:10F338005DA586DA0F4983D62BC8D632F450E4503F
:10F34800E550E250E3D62BC888E698E768E278E310
:10F3580028E838E9D62BEED632ED8D2A38D62B762A
:10F36800DB03D62BBCDB03D62BBC8C819C34C208B8
:10F37800A6E0817D33C84C815C0068E578E5D62A33
:10F38800402C273C2B70E370E22C333CD4D631D090
:10F398002C333C59AF094AD73B78026E847BFEC1B7
:10F3A8002F7C74319A7D843D5A7DC87F917EE4BB61
:10F3B8004C7E6CAAAA7F00000081AFD6003CAF0C3F
:10F3C8000C8D361DD626EB08E78C809C8FD208AFB3
:10F3D800D6167DD60F578C809C93D26818FCA0E86F
:10F3E80019FCD2788C809C95D26818FCA0E819FC8E
:10F3F800D278AFD60F5770E770E650E250E3C242BA
:10F4080018FCA0E219FCC2028D1EB3D6167DD60FD9
:10F418005770E770E6D60A492CD6167DD60F575096
:10F42800E850E970E370E228E838E9D27218FCA0E5
:10F43800E219FCD26250E250E3AFD61680D60F57DD
:10F4480070E570E42C813C3608E6A6E0006B12D625
:10F4580034CE08E4A6E0306B04D242A0E2D252A037
:10F46800E208E7D634CE08E6A6E000EB0708E4A6F3
:10F47800E0306B04D242A0E2D252A0E2B200D20243
:10F48800A0E2D20250E450E52C813C368D2025487C
:10F49800E056E00FA6E00A7B0306E00706E03058D6
:10F4A800E008E4E0E0E0E0E0E0E0E056E00FA6E0BD
:10F4B8000A7B0306E00706E03048E0AF88E698E7F5
:10F4C80068E278E328E838E92C003C00D6352F7D3F
:10F4D800356E8B05D6352F7B3A0233122202331252
:10F4E8002202331222023312224203CF38E08BE485
:10F4F800A0E6C206A6E0206D352F26E030FB01AF5E
:10F50800A6E00A7B0926E007A6E00AFB01AFA6E011
:10F5180010EFAF88E698E768E278E328E838E9086A
:10F52800E658E770E370E2D61EB150E250E3AF7CD4
:10F53800268D0519D61680D60F5770E570E42C81F4
:10F548003C364C1100E408E4A6E0016B0810E71013
:10F55800E6FBF18B0410E710E60C3016E000D2024F
:10F56800A0E200E4EBEFB200CFD202A0E2D2025058
:10F57800E450E52C813C368D202588E698E768E242
:10F5880078E328E838E92C003C00D635FC7D3615B0
:10F5980026E030023312224203CF38E0D635FCFB96
:10F5A800EF88E698E768E278E328E838E908E6585B
:10F5B800E770E370E2D61EB150E250E3AF18FCA04A
:10F5C800E619FCC206A6E0206D35FCA6E030FB017A
:10F5D800AFA6E032EFAF7C288D05198D006C8D0049
:10F5E8004F8D00000C008C809C9AD2088D0077D635
:10F5F8000A6F8D131B0000000000000000000000CF
:10F6080000000000000000000000000000000000F2
:10F6180000000000000000000000000000000000E2
:10F6280000000000000000000000000000000000D2
:10F6380000000000000000000000000000000000C2
:10FFC800000D0A4D455A5A382025322E33664D48C1
:10FFD8007A0D0A0052253034582C253032580D0A33
:10FFE8000057253034582C253032580D0A00696ED8
:07FFF80066006E616E00005F
:020000040001F9
:10000000000E816F57C582F558C583F559C584F533
:100010005AC585F585AF14D0010E816F82C501F5F3
:1000200083C502F584C503F585C504F5EBEC90F0B6
:1000300001C582F502C583F503C584F504C585F5C0
:10004000000E876F000E866FBAC571F5BBC572F5DD
:100050008151D8B40DD08151D8A404D0000E676F5F
:100060002B0E03D0000E676F2D0E666F66C581F5EF
:1000700082C501F583C502F584C503F585C504F580
:1000800017EC8EF001040210D8A42CD00501815188
:10009000D8B409D081C500F67107D8A07207000E48
:1000A000876F010E866F000E8625016E060E872172
:1000B000026EF60E036EFF0E046ED2EC90F0FD0E93
:1000C0007127FF0E722355C512F556C513F5000EA4
:1000D000146E060E156E71C516F572C517F5CBECCC
:1000E0008FF0120082C501F583C502F584C503F5C2
:1000F00085C504F517EC8EF001500210D8A41AD073
:1001000005018151D8B409D081C500F67107D8A086
:100110007207000E876F010E866F000E8625016E36
:10012000060E8721026EFA0E036EFF0E046ED2ECED
:1001300090F0C5D7000E0501886F000E896F800E04
:100140008A6F3F0E8B6F000E706F000E6F6F82C54F
:1001500001F583C502F584C503F585C504F5000ED8
:10016000056E000E066E000E076E000E086E86EC21
:100170008FF0D8A00CD0BED073C588F574C589F5B2
:1001800075C58AF576C58BF505016F4B702B88C553
:100190000FF589C510F58AC511F58BC512F5000E4E
:1001A000136E000E146E200E156E410E166E68EC66
:1001B00084F00FC573F510C574F511C575F512C53A
:1001C00076F505017351825D016E74518359026E9B
:1001D00075518459036E76518559046E2CEC90F05C
:1001E00004BECAD704500310021004E1020E015CE1
:1001F000D8A0C2D773C528F574C529F575C52AF5E9
:1002000076C52BF582C52CF583C52DF584C52EF555
:1002100085C52FF5AFEC8DF0D8A0AED7050188517C
:10022000825D016E89518359026E8A518459036E31
:100230008B518559046E2CEC90F004BE08D004500C
:100240000310021043E1020E015CD8B03FD088C514
:1002500082F589C583F58AC584F58BC585F54AD0B5
:1002600088C528F589C529F58AC52AF58BC52BF5DA
:10027000000E2C6E000E2D6E200E2E6E410E2F6E77
:1002800086EC8AF028C588F529C589F52AC58AF53E
:100290002BC58BF505016F07D8A070078851825DCB
:1002A000016E89518359026E8A518459036E8B51B4
:1002B0008559046E2CEC90F004BEC9D7045003108D
:1002C000021004E1020E015CD8A0C1D782C528F556
:1002D00083C529F584C52AF585C52BF588C52CF578
:1002E00089C52DF58AC52EF58BC52FF5AFEC8DF0A0
:1002F000D8A0B6D75BC569F569C56AF50501BDBF6C
:1003000005D0BCC562F5BDC563F504D0000E636FB2
:10031000060E626F62C56DF563C56EF56D4B6E2B93
:10032000660E6A19D8A416D070AF0CD0000E886F74
:10033000000E896F800E8A6F3F0E8B6F000E706FFC
:10034000000E6F6F670E6919D8B404D06F516D2716
:1003500070516E23000E806F000E7F6F82C577F59F
:1003600083C578F584C579F585C57AF588C573F5B3
:1003700089C574F58AC575F58BC576F57BD077C5CB
:1003800028F578C529F579C52AF57AC52BF588C5EC
:100390002CF589C52DF58AC52EF58BC52FF586EC74
:1003A0008AF028C541F529C542F52AC543F52BC574
:1003B00044F5CAEC8BF041C57BF542C57CF543C5DD
:1003C0007DF544C57EF57BC501F57CC502F57DC58F
:1003D00003F57EC504F57DEC8EF001C56BF502C515
:1003E0006CF577C528F578C529F579C52AF57AC55C
:1003F0002BF57BC513F57CC514F57DC515F57EC5BC
:1004000016F588C50FF589C510F58AC511F58BC598
:1004100012F568EC84F00FC52CF510C52DF511C54B
:100420002EF512C52FF551EC90F028C577F529C5AA
:1004300078F52AC579F52BC57AF588C528F589C5DB
:1004400029F58AC52AF58BC52BF5000E2C6E000EFA
:100450002D6E200E2E6E410E2F6E86EC8AF028C572
:1004600088F529C589F52AC58AF52BC58BF50501BF
:100470007F4B802B6D517F5D8051800A5C6E6E5189
:10048000800A5C58D8A07BD788C50FF589C510F5C0
:100490008AC511F58BC512F5000E136E000E146E91
:1004A000A00E156E400E166E68EC84F00FC57BF53D
:1004B00010C57CF511C57DF512C57EF577C528F50B
:1004C00078C529F579C52AF57AC52BF57BC52CF5B4
:1004D0007CC52DF57DC52EF57EC52FF5AFEC8DF0D5
:1004E000D8B003D0000E050118D077C501F578C546
:1004F00002F579C503F57AC504F57BC505F57CC51C
:1005000006F57DC507F57EC508F586EC8FF0D8A009
:100510000BD005016BB108D0000E7B6F000E7C6F15
:10052000000E7D6F000E7E6F82C501F583C502F55A
:1005300084C503F585C504F57BC505F57CC506F5C1
:100540007DC507F57EC508F588EC87F001C577F510
:1005500002C578F503C579F504C57AF577C528F5A0
:1005600078C529F579C52AF57AC52BF5000E136EE5
:10057000000E146E200E156E410E166E73C50FF52B
:1005800074C510F575C511F576C512F568EC84F0E3
:100590000FC52CF510C52DF511C52EF512C52FF57B
:1005A000AFEC8DF0D8A024D005016F4B702B73C534
:1005B0000FF574C510F575C511F576C512F5000E69
:1005C000136E000E146E200E156E410E166E68EC42
:1005D00084F00FC573F510C574F511C575F512C516
:1005E00076F5660E05016A19D8A402D06D4B6E2B04
:1005F00073C588F574C589F575C58AF576C58BF51B
:100600006FC560F570C561F5000E0501686F000EDD
:10061000656F000E646F000E806F000E7F6FCDD08F
:1006200077C528F578C529F579C52AF57AC52BF55A
:1006300088C52CF589C52DF58AC52EF58BC52FF5F6
:1006400086EC8AF028C541F529C542F52AC543F54F
:100650002BC544F5CAEC8BF041C57BF542C57CF552
:1006600043C57DF544C57EF57BC501F57CC502F526
:100670007DC503F57EC504F57DEC8EF002BE06D087
:10068000025013E10A0E015CD8B00FD07BC501F512
:100690007CC502F57DC503F57EC504F57DEC8EF0C5
:1006A00001C56BF502C56CF505D0000E05016C6F38
:1006B000090E6B6F05016851D8B461AF20D0000EF0
:1006C0008625D96E060E8721DA6E2E0EDF6E864BDA
:1006D000872B7107D8A07207010E686F10D0000E2B
:1006E0008625D96E060E8721DA6E300EDF6E864BB8
:1006F000872B7107D8A072076407D8A065076451DB
:100700006511D8A4ECD7000E8625D96E060E872178
:10071000DA6E6B51300FDF6E864B872B7107D8A0D6
:10072000720777C528F578C529F579C52AF57AC500
:100730002BF57BC513F57CC514F57DC515F57EC578
:1007400016F588C50FF589C510F58AC511F58BC555
:1007500012F568EC84F00FC52CF510C52DF511C508
:100760002EF512C52FF551EC90F028C577F529C567
:1007700078F52AC579F52BC57AF588C528F589C598
:1007800029F58AC52AF58BC52BF5000E2C6E000EB7
:100790002D6E200E2E6E410E2F6E86EC8AF028C52F
:1007A00088F529C589F52AC58AF52BC58BF505017C
:1007B0006007D8A061077F4B802B6D517F5D805112
:1007C000800A5C6E6E51800A5C58D8B008D087BF32
:1007D00027D7875104E14B0E865DD8A021D7000EA4
:1007E000806F4F0E7F6F000E7F25D96E060E802121
:1007F000DA6EDF6A000E5C6E060E5D6E86515C5E20
:1008000087515D5A7F515C24016E80515D20026EDC
:10081000000E036E060E046E86C505F587C506F547
:1008200074EC90F086517F5D866F87518059876F99
:100830008151D8B402D0010E01D0000E7F6F806BC1
:10084000C0B30FD022D08607D8A08707000E862518
:10085000D96E060E8721DA6E300EDF6E7107D8A0D2
:10086000720771517F5D8051800A5C6E7251800AFF
:100870005C58D8B00AD086517F5D8051800A5C6E8A
:100880008751800A5C58D8A0DED78151D8B40BD0EC
:100890008607D8A08707000E8625D96E060E872109
:1008A000DA6E81C5DFF47F51715F8051725B55C58F
:1008B00012F556C513F5000E8625146E060E872117
:1008C000156E71C516F572C517F5CBEC8FF01200D9
:1008D0001250800B1B6E12501224216E11BE21800B
:1008E0002150D8B40DD02128D8A408D0000E0F6E06
:1008F000000E106E000E116E000E126E118E08D0DA
:10090000000E0F6E000E106E000E116E000E126EB5
:100910001650800B1B1A165016241C6E15BE1C8018
:100920001C50D8B40DD01C28D8A408D0000E136ECB
:10093000000E146E000E156E000E166E158E08D089
:10094000000E136E000E146E000E156E000E166E65
:100950001C50D8B403D02150D8A409D0000E0F6E7B
:10096000000E106E000E116E000E126E1200155069
:100970000F02F3C426F5F4C427F526501D6E1E6A37
:100980001F6A206A2750226E236A246A256A14503F
:100990001002F3C426F5F4C427F526501D26000ED8
:1009A0001E221F22202227502226000E232224222C
:1009B000252213501102F3C426F5F4C427F526505E
:1009C0001D26000E1E221F22202227502226000E46
:1009D0002322242225221FC520F51EC51FF51DC573
:1009E0001EF51D6A13501002F3C426F5F4C427F552
:1009F00026501D2627501E22000E1F22000E2022E8
:100A000014500F02F3C426F5F4C427F526501D2612
:100A100027501E22000E1F22000E20221FC520F587
:100A20001EC51FF51DC51EF51D6A13500F02F3C428
:100A300026F5F4C427F526501D2627501E22000E49
:100A40001F22000E202215501002F3C426F5F4C414
:100A500027F52650222627502322000E2422000E9E
:100A6000252214501102F3C426F5F4C427F52650AC
:100A7000222627502322000E2422000E2522155064
:100A80001102F3C426F5F4C427F52650176E27503B
:100A9000186E196A1A6A19C51AF518C519F517C515
:100AA00018F5176A175022261850232219502422AD
:100AB0001A50252220502226000E232224222522ED
:100AC0001FC520F51EC51FF51DC51EF51D6A1C504E
:100AD00021C517F5186A1726000E1822820E172452
:100AE000266EFF0E1820276E0FD0D89022362336A0
:100AF0002436253620BE2280D8901D361E361F365D
:100B000020362606D8A0270624AEEFD7000E1C6E8E
:100B100020AE17D0FF0E1D14176EFF0E1E14186E98
:100B2000FF0E1F14196E7F0E20141A6E1750181026
:100B300019101A10D8B403D0010E1C6E02D022B0C6
:100B4000FBD71C50D8B41FD0010E2226000E232242
:100B50002422252225A017D022C517F523C518F574
:100B600024C519F525C51AF51A341A321932183266
:100B7000173217C522F518C523F519C524F51AC56E
:100B800025F5264A272A27BE0DD0275003E126281F
:100B9000D8A008D0000E226E000E236E800E246EA8
:100BA0007F0E20D027BE05D027500EE12604D8B0F6
:100BB0000BD0000E226E000E236E000E246E000E6F
:100BC000256E000E1B6E0FD026C521F5FF0E2216D6
:100BD000FF0E23167F0E2416000E251621B0248E3C
:100BE000D8902130256E1B50251222C50FF523C544
:100BF00010F524C511F525C512F512008EC5D9F4DE
:100C00008FC5DAF4DEC4F6F4DDC4F7F4000EF86E36
:100C10000800F550250AD8A466D18EC5D9F48FC531
:100C2000DAF4DE2A000EDD22000EBB6F000EBA6F72
:100C3000BAC5C0F5BC69BD69000E0AD0C0838EC5B7
:100C4000D9F48FC5DAF4DE2A000EDD221AD0010EA7
:100C5000926F17D08EC5D9F48FC5DAF4DEC4F6F4DE
:100C6000DDC4F7F4000EF86E0800F5505E6E5F6AA2
:100C70005F50000AD8A4EBD75E50300AD8B4DED754
:100C8000E6D79251D8B4E6D78EC507F58FC508F5DB
:100C900090C509F591C50AF5DAEC8EF007C5BAF5ED
:100CA00008C5BBF50501BBAF05D0C081BA6DBB1F40
:100CB000D8B0BB2B8EC5D9F48FC5DAF4DEC4F6F4F8
:100CC000DDC4F7F4000EF86E0800F5502E0AD8A423
:100CD00015D08EC5D9F48FC5DAF4DE2A000EDD22D8
:100CE0008EC507F58FC508F590C509F591C50AF5BC
:100CF000DAEC8EF007C5BCF508C5BDF58EC5D9F494
:100D00008FC5DAF4DEC498F5DDC499F598C5F6F41C
:100D100099C5F7F4000EF86E0800F550580AD8A4EB
:100D200041D090C5D9F491C5DAF4DFC45EF5020E66
:100D3000DE26DFC45FF5000EDD225EC5D9F45FC597
:100D4000DAF4DEC493F5DDC494F5010E05019825AF
:100D50005E6E000E99215F6E8EC5D9F48FC5DAF4F0
:100D60005EC5DEF45FC5DDF40BD08CC51BF58DC50B
:100D70001CF593C51DF594C51EF53EEC8DF01200D3
:100D800098C5F6F499C5F7F4000EF86E0800F55012
:100D90005E6E5F6A5F50000AD8A404D05E50580AA5
:100DA000D8B4E3D78EC5D9F48FC5DAF4DEC498F58C
:100DB000DDC499F598C5F6F499C5F7F4000EF86E00
:100DC0000800F5C497F508D0984B992B18D06C0EF5
:100DD00001D0000E976F13D0050197515E6E5F6AC8
:100DE0005F50000AD8A4F5D75E504C0AD8B4ECD7AF
:100DF0002A0AD8B4ECD70A0AD8B4E6D7EAD798C5F5
:100E0000F6F499C5F7F4000EF86E0800F550660A7E
:100E1000D8B41AD060D090C5D9F491C5DAF4DFC443
:100E20005EF5040EDE26DFC45FF5000EDD225EC532
:100E3000D9F45FC5DAF4DEC493F5DEC494F5DEC4FC
:100E400095F5DEC496F50ED097515E6E5F6A5F50E1
:100E5000000AD8A407D05E504C0AD8B4DCD7200AC8
:100E6000D8B4D9D7010E98255E6E000E99215F6E19
:100E70008EC5D9F48FC5DAF45EC5DEF45FC5DDF446
:100E800018D08CC555F58DC556F593C557F594C545
:100E900058F595C559F596C55AF598C5F6F499C50E
:100EA000F7F4000EF86E0800F5C45BF500EC80F076
:100EB000120098C5F6F499C5F7F4000EF86E080014
:100EC000F5505E6E5F6A5F50000AD8A404D05E5091
:100ED000660AD8B4D6D78EC5D9F48FC5DAF4DE2A1F
:100EE000000EDD2212008EC5D9F48FC5DAF4DEC4FF
:100EF000F6F4DDC4F7F4000EF86E0800F550026E4B
:100F0000036A8CC504F58DC505F536EC8FF0E3D783
:100F10000450800B0D6E045004240F6E03BE0F802E
:100F20000F50D8B40DD00F28D8A408D0000E016EF1
:100F3000000E026E000E036E000E046E038E06D0CD
:100F4000000E016E000E026E000E036E000E046EA7
:100F50000850800B0E6E0D500E18D8A40D8C085042
:100F600008240E6E07BE0E800E50D8B40DD00E2889
:100F7000D8A408D0000E056E000E066E000E076E97
:100F8000000E086E078E06D0000E056E000E066E6F
:100F9000000E076E000E086E0F500E5CD8B022D007
:100FA0000DAC02D0800E0D1A0FC510F50EC50FF551
:100FB00010C50EF501C510F505C501F510C505F5FF
:100FC00002C510F506C502F510C506F503C510F5F6
:100FD00007C503F510C507F504C510F508C504F5E8
:100FE00010C508F5000E106E0F500EC509F50A6AFF
:100FF000095E000E0A5A0ABE2CD00A5004E11A0EED
:10100000095CD8A026D00150021003100410D8B4F7
:1010100002D0010E01D0000E106E000E016E000E07
:10102000026E000E036E000E046E0EC50FF515D095
:1010300010A005D0D89010300109106E02D0D890C1
:10104000103201B0108E0434043203320232013205
:101050000F2A0E500F5CD8A0EBD70DBC28D00F5034
:10106000D8A409D0000E016E000E026E000E036EB1
:10107000000E046E12000550012606500222075091
:1010800003220850042204A071D010A005D0D890EB
:1010900010300109106E02D0D890103201B0108EBD
:1010A000043404320332023201320F2A5FD0055079
:1010B000015C06500258075003580450800A096E1C
:1010C0000850800A0958D8B025D00150055C096E37
:1010D000025006580A6E035007580B6E0450085809
:1010E0000C6EFF0E0924016EFF0E0A20026EFF0E29
:1010F0000B20036EFF0E0C20046E800E0D1A106C78
:101100001050D8A40FD0010E0126000E0222032297
:10111000042208D00550015E0650025A0750035AB7
:101120000850045A0150021003100410D8A41CD017
:101130001050D8A419D0000E016E000E026E000EE1
:10114000036E000E046E1200D8900136023603368C
:10115000043610BE018010A002D0D88001D0D890F3
:1011600010360F50D8A40F0603AEEED7000E0E6E49
:1011700010AE0BD010C509F57F0E0916D8B403D0F8
:10118000010E0E6E02D001B0FBD70E50D8B420D0A5
:10119000010E0126000E02220322042204A018D010
:1011A00001C509F502C50AF503C50BF504C50CF523
:1011B0000C340C320B320A32093209C501F50AC56A
:1011C00002F50BC503F50CC504F50F28D8A40F2AAA
:1011D0000F28D8B403D00F50D8A40DD0000E016E44
:1011E000000E026E000E036E000E046E0F50D8A4A7
:1011F00002D0000E0D6E0FA002D0038E01D0039E10
:10120000D8900F30046E0DBE048E01C501F502C5E5
:1012100002F503C503F504C504F51200080E00012C
:10122000B16F000E0401186F1969C968000E086FCC
:101230000969C768000E106F1169C8683F0E020186
:10124000046F04010097C696490E436F9D0E446FCC
:10125000000E456F000E476F4691468B468F0095F6
:101260000185C68400910181C68000930183C682F6
:101270002095C294CA94009BBE9AC69A2091C290AF
:10128000CA902093C292CA92010E0201D56FA00E9D
:10129000D46FD189D18B0401009FC68E070E020145
:1012A000766F0401009DBE8CC69C260E0201076F5E
:1012B000D28F000E136E240E146EF40E156E410EB6
:1012C000166E04014351016E4451026E4551036E86
:1012D000046A000E9EEC8CF001C50FF502C510F5F6
:1012E00003C511F504C512F568EC84F00FC528F5A7
:1012F00010C529F511C52AF512C52BF5000E2C6E67
:10130000240E2D6E740E2E6E490E2F6E86EC8AF012
:1013100028C5ACF529C5ADF52AC5AEF52BC5AFF589
:10132000C90E0501A26FFF0EA36FACC5A4F5ADC534
:10133000A5F5AEC5A6F5AFC5A7F502EC91F0020E76
:101340000201616F000E626F000E0001D56F000E8A
:10135000D86F7F0ED96F7F0EDA6F7F0EDB6F020EB4
:10136000DC6F040EDD6F100EDE6F400EDF6F000EBF
:10137000D76F8A0ED66F000E0501B16F000EB06FE9
:10138000500EB025D96E060EB121DA6EDF6AB04B71
:10139000B12BB1BFF5D7100EB15DD8A0F1D7550E66
:1013A0000401596FAA0E596F5991080E5D6F000E16
:1013B0005E6F000E5F6F550E596FAA0E596F5981FF
:1013C000AE9A9E8A090E0501AB6F1E0EAA6FE40E3F
:1013D000E82EFED7AA2FFCD7AB2FFAD70000D68E67
:1013E000C284000E0501B16F000EB06FCEB0FED703
:1013F000D1C4BFF5CEB229D00501BF51F00B800A90
:10140000D8A409D0500EBE25D96E860EBF21DA6E43
:10141000CFC4DFF406D0E00EBF19BE11D8B4CFC4DC
:10142000C9F2B005B111D8A40DD0E90EA26FFF0E1C
:10143000A36FBEC5A4F5BFC5A5F5CFC4A6F5A76B20
:1014400002EC91F0CEB0D2D7FDD7000EC76E0501E9
:10145000BFBF06D0C90EBE25F66EBF0EBF211BD082
:10146000BF51F00B800AD8A408D0500EBE25D96E0B
:10147000860EBF21DA6EDF5028D0BF29D8A013D046
:10148000000EBE25AA6F010EBF21AB6FC90EAA25A3
:10149000F66EBF0EAB21F76EF86A000EF822080058
:1014A000F5C4BFF413D0BE0507E1E00EBF19D8A400
:1014B00003D0B7C4BFF40AD0E00EBF19BE11D8A440
:1014C00003D0C7C2BFF402D0000EBF6EB005B11189
:1014D000D8A418D0BF5104E14C0EBE5DD8A012D0E4
:1014E000BE05900EBF59D8B00DD0DC0EA26FFF0E16
:1014F000A36FBEC5A4F5BFC5A5F5CFC4A6F5A76B60
:1015000002EC91F0CEA0FED7C76870D72B50800BAD
:10151000386E2B502B243F6E2ABE3F803F50D8B4EC
:101520000DD03F28D8A408D0000E286E000E296EDA
:10153000000E2A6E000E2B6E2A8E06D0000E286E2C
:10154000000E296E000E2A6E000E2B6E2F50800B9F
:10155000381A2F502F24406E2EBE40804050D8B4F1
:101560000DD04028D8A408D0000E2C6E000E2D6E91
:10157000000E2E6E000E2F6E2E8E06D0000E2C6EDC
:10158000000E2D6E000E2E6E000E2F6E2C502D10A4
:101590002E102F10D8A417D0000E286E000E296E22
:1015A000000E2A6E000E2B6E800E2A127F0E2B125A
:1015B00038502B1228C528F529C529F52AC52AF542
:1015C0002BC52BF512003F50D8A409D0000E286E71
:1015D000000E296E000E2A6E000E2B6E1200405077
:1015E0003FC530F5316A305E000E315A7F0E30242F
:1015F000396E000E31203A6E28C534F529C535F50F
:101600002AC536F52BC537F5000E286E000E296E5B
:10161000000E2A6E000E2B6E000E3B6E000E3C6E0E
:10162000000E3D6E000E3E6E000E406E28D0405003
:10163000D8B411D0D8903436353636363736D890BF
:10164000283629362A362B363EBE2880D8903B369F
:101650003C363D363E362C50345C2D5035582E509D
:1016600036582F503758D8A009D03E8C2C50345EB5
:101670002D50355A2E50365A2F50375A402A190EAF
:101680004064D5D73450351036103710D8B411D047
:101690003B800FD0D890283629362A362B363EBECE
:1016A0002880D8903B363C363D363E363906D8A0A9
:1016B0003A062AAEEFD7000E406E3EAE17D0FF0EB0
:1016C0003B14306EFF0E3C14316EFF0E3D14326E33
:1016D0007F0E3E14336E3050311032103310D8B4B8
:1016E00003D0010E406E02D028B0FBD74050D8B4D2
:1016F0001FD0010E2826000E29222A222B222BA0E1
:1017000017D028C530F529C531F52AC532F52BC5C6
:1017100033F53334333232323132303230C528F59A
:1017200031C529F532C52AF533C52BF5394A3A2A90
:101730003ABE10D03A5003E13928D8A00BD0000EA1
:101740003A6E3968000E286E000E296E000E2A6E61
:10175000000E2B6E3ABE05D03A5011E13904D8B0D4
:101760000ED0000E3A6E000E396E000E286E000E7E
:10177000296E000E2A6E000E2B6E000E386E39C5D3
:101780003FF53FA002D02A8E01D02A9ED8903F304C
:101790002B6E0ED7B2C551F5B3C552F5B4C553F58E
:1017A000B5C554F541C551F542C552F543C553F58C
:1017B00044C554F5810E456EFF0E466E51C547F582
:1017C00052C548F553C549F554C54AF5180E05D01C
:1017D000D8904A32493248324732E82EF9D747503A
:1017E00045244F6E000E4620506E50BE0FD0505014
:1017F00004E1170E4F5CD8A009D041C541F542C5A0
:1018000042F543C543F544C544F5120050BE5BD0D4
:101810004FC545F5FF0E466EFF0E476E7F0E486EB4
:10182000000E496E456601D007D04934493248322E
:1018300047324632452EF6D746C54BF547C54CF5DF
:1018400048C54DF549C54EF54B505114456E4C50A9
:101850005214466E4D505314476E4E505414486EF9
:101860004550461047104810D8B4C7D751C545F564
:1018700052C546F553C547F554C548F5200E05D069
:10188000D8904832473246324532E82EF9D7455093
:10189000D8B408D04B5051264C5052224D505322B0
:1018A0004E5054224B1C456E4C1C466E4D1C476ED0
:1018B0004E1C486E4550511646505216475053160E
:1018C0004850541632D051C545F552C546F553C55A
:1018D00047F554C548F5200E05D0D8904832473218
:1018E00046324532E82EF9D7456608D0000E516ED3
:1018F000000E526E000E536E000E16D0D89051346A
:10190000456E5234466E5334476E5434486E4550DB
:10191000461047104810D8B408D0000E516E000E83
:10192000526E800E536EBF0E546E51C541F552C5B6
:1019300042F553C543F554C544F51200096E0950EC
:10194000D8A404AE1AD001C505F502C506F503C535
:1019500007F504C508F5051E061E071E081E052A04
:10196000000E06220722082205C50BF506C50CF558
:1019700007C50DF508C50EF508D001C50BF502C564
:101980000CF503C50DF504C50EF50150021003104A
:101990000410D8A409D0000E016E000E026E000ED5
:1019A000036E000E046E1200960E0A6E06D00A2A0E
:1019B000D8900E320D320C320B32000E0B14056E25
:1019C000000E0C14066E000E0D14076EFE0E0E14A3
:1019D000086E0550061007100810D8B40DD0E7D7D0
:1019E0000A2A010E0B26000E0C220D220E22D89080
:1019F0000E320D320C320B32000E0B14056E000E3F
:101A00000C14066E000E0D14076EFF0E0E14086EF9
:101A10000550061007100810D8B407D0E1D70A0601
:101A2000D8900B360C360D360E360DBE03D0020E96
:101A30000A60F5D70AA00D9ED8900A320AC505F5AE
:101A4000066A076A086A05C508F5076A066A056A2C
:101A500005500B1206500C1207500D1208500E12B2
:101A60000950D8A404AE01D00E8E0BC501F50CC5EB
:101A700002F50DC503F50EC504F51200BDAFC09308
:101A8000BDAF05D0000E236E010E226E04D0BCC582
:101A900022F5BDC523F5BAC524F5BBC525F5000E55
:101AA000286E4F0E276E000E06014F6F2AD02706B4
:101AB000D8A028061D500F0B266E0A0E266002D0F5
:101AC000300E01D0370E2626000E2724D96E060EC2
:101AD0002820DA6E26C5DFF42206D8A023062406C5
:101AE000D8A025061DC51FF51EC520F5040E216EC4
:101AF000D89020321F32212EFBD71FC51DF520C5DF
:101B00001EF528BE1BD0285004E1020E275CD8A089
:101B100015D01D501E10D8A4CAD723BE05D02350FF
:101B2000C6E12204D8B0C3D725BE08D0255003E1B2
:101B30002404D8A003D00501C0B3B9D71BC512F542
:101B40001CC513F5000E2724146E060E2820156EF2
:101B500024C516F525C517F5CBEC8FF01200000E45
:101B60002814306E000E2914316E800E2A14326E45
:101B70007F0E2B14336E3050311032103310D8A436
:101B800008D0000E286E000E296E000E2A6E000E80
:101B90002B6E000E2C14306E000E2D14316E800E44
:101BA0002E14326E7F0E2F14336E305031103210DF
:101BB0003310D8A408D0000E2C6E000E2D6E000E2F
:101BC0002E6E000E2F6E2BAE09D0286C291ED8B0B9
:101BD000292A2A1ED8B02A2A800E2B562FAE09D0C9
:101BE0002C6C2D1ED8B02D2A2E1ED8B02E2A800E79
:101BF0002F56000E281A000E291A000E2A1A800EDF
:101C00002B1A000E2C1A000E2D1A000E2E1A800E02
:101C10002F1A2C50285C2D5029582E502A582F50FE
:101C20002B58D8B002D0D8901200D8801200B6C578
:101C30000BF5B7C50CF5B8C50DF5B9C50EF501C561
:101C40000BF502C50CF503C50DF504C50EF50BC566
:101C500005F50CC506F50DC507F50EC508F5180EFA
:101C600005D0D8900832073206320532E82EF9D76F
:101C70000550096E0A6A09500A10D8A419D0D890E4
:101C80000B34056E0C34066E0D34076E0E34086E80
:101C90000550061007100810D8A405D0000E026EDB
:101CA000020E016E1200000E026E030E016E120093
:101CB00009280A10D8A41CD00BC505F50CC506F5DB
:101CC0000DC507F50EC508F5090ED8900536063680
:101CD00007360836E82EF9D7055006100710081009
:101CE000D8A402D0010E01D0000E016E026A1200CB
:101CF000000E026E040E016E1200033404340A6EEC
:101D00000A50D8A409D0000E016E000E026E000E1B
:101D1000036E000E046E120001C505F502C506F53E
:101D200003C507F504C508F5200E05D0D890083284
:101D3000073206320532E82EF9D70550096E038EB8
:101D4000FF0E0116FF0E0216FF0E0316000E0416FC
:101D5000960E0A5E0AAE0DD00A50800A970FD8A0E0
:101D6000D2D7D89004320332023201320A3EF9D778
:101D70000DD01F0E0A6407D0C6D7D89001360236A0
:101D8000033604360A060A50D8A4F7D70950D8B447
:101D900008D0041E031E021E016C000E0222032244
:101DA000042201C501F502C502F503C503F504C50A
:101DB00004F51200000E0F6E000E0E6E07C5D9F46A
:101DC00008C5DAF4DEC4F6F4DDC4F7F4000EF86EEC
:101DD0000800F5502A0AD8A433D007C5D9F408C59D
:101DE000DAF4DE2A000EDD2209C5D9F40AC5DAF4D8
:101DF000DFC40BF5020EDE26DFC40CF5000EDD227B
:101E00000BC5D9F40CC5DAF4DEC40EF5DDC40FF54C
:101E100028D00EC501F50FC502F5000E046E0A0E9E
:101E2000036E15EC91F00D5001240E6E000E022091
:101E30000F6E07C5D9F408C5DAF4DE2A000EDD22DC
:101E400007C5D9F408C5DAF4DEC4F6F4DDC4F7F446
:101E5000000EF86E0800F550D00F0D6E090E0D64DF
:101E6000D8D70EC507F50FC508F5120004500510A8
:101E7000D8B404D004500510D8A404D0025028ECE3
:101E800091F0120020EE0AF00450D9260550DA2213
:101E9000DE50DE10D8B416D020EE0AF00450D92659
:101EA0000550DA2210EE03F00450E1260550E2223C
:101EB000DE50E65CE650800A0A6EDE50800A0A5860
:101EC000D8B0120020EE03F00450D9260550DA22D3
:101ED000DEC406F5DDC407F504C5D9F405C5DAF49A
:101EE000DEC408F5DDC409F506500824D96E075094
:101EF0000920DA6E02C5DFF420EE03F00450D92683
:101F00000550DA22DE2A000EDD221200000E011436
:101F1000096E000E02140A6E800E03140B6E7F0E03
:101F200004140C6E09500A100B100C10D8A408D021
:101F3000000E016E000E026E000E036E000E046EA7
:101F4000000E0514096E000E06140A6E800E0714AA
:101F50000B6E7F0E08140C6E09500A100B100C103B
:101F6000D8A408D0000E056E000E066E000E076E97
:101F7000000E086E055001180AE10650021807E12C
:101F80000750031804E108500418D8B402D0D890C0
:101F90001200D88012000501C0A10AD014C50BF5AB
:101FA00015C50CF512C50DF513C50EF5B6EC90F080
:101FB00017AE04D0000E176E000E166E000E1A6ECD
:101FC000000E196E0CD0000E036E200E026E12C5AC
:101FD00004F513C505F536EC8FF0194A1A2A165088
:101FE000195C1A50800A186E1750800A1858D8A029
:101FF000EAD70501C0B1120014C50BF515C50CF5E3
:1020000012C50DF513C50EF5B6EC90F012009CC587
:10201000A0F59DC5A1F50FD09AC58CF59BC58DF592
:10202000A00E05018E6F050E8F6F9EC590F59FC5A2
:1020300091F5FEEC85F0A0C5F6F4A1C5F7F4000E0D
:10204000F86E0800F5500009D8A4E6D7000E050187
:102050009B6F000E9A6F120004BE09D001C501F5F6
:1020600002C502F503C503F504C504F5120001C558
:1020700005F502C506F503C507F504C508F5051EF7
:10208000061E071E081E052A000E06220722082229
:1020900005C501F506C502F507C503F508C504F534
:1020A0001200000E2C1A000E2D1A000E2E1A800E91
:1020B0002F1A28C501F529C502F52AC503F52BC538
:1020C00004F52CC505F52DC506F52EC507F52FC55C
:1020D00008F588EC87F001C528F502C529F503C588
:1020E0002AF504C52BF5120003C509F504C50AF548
:1020F00001C507F502C508F510D009C5D9F40AC510
:10210000DAF4DF500B6E094A0A2A07C5D9F408C56C
:10211000DAF40BC5DFF4074A082A0506D8A006063C
:102120000528EBE10628D8B41200E7D701EE50F2FB
:1021300014EE00F0EE6AE550E150FCE1E250FAE105
:1021400001EE00F2500EEE6AE806FDE101EEB2F19A
:102150000F0EEE6AE806FDE10401080E5D6F000E49
:102160005E6F000E5F6F00010EEF89F0000E116EC2
:10217000000E106E0BD00FC502F5036A0DC504F5F5
:102180000EC505F536EC8FF0104A112A10500B24BD
:10219000D96E11500C20DA6EDF500F6E0F50D8B48C
:1021A0001200E9D701C505F502C506F503C5F6F429
:1021B00004C5F7F4034A042A000EF86E05C5D9F4E5
:1021C00006C5DAF4054A062A0800F5C4DFF4DF5034
:1021D000D8B41200EBD70150021003100410D8B489
:1021E00008D0000E011A000E021A000E031A800E0B
:1021F000041A01C501F502C502F503C503F504C5BE
:1022000004F51200A40EA86F050EA96F000E9A6FB8
:10221000000E9B6FA2C59CF5A3C59DF5A80E9E6FF1
:10222000050E9F6F07EC90F0120001500302F3C4FB
:1022300005F5F4C406F501500402F35006260250D9
:102240000302F350062605C501F506C502F5120086
:10225000016EB7A2FED701C5C9F21200AE9ACFC473
:06226000BEF511001100A3
:020000040020DA
:10000000FFFFFFFFFFFFFFFFFFFFFFFFFFFFFFFF00
:10001000FFFFFFFFFFFFFFFFFFFFFFFFFFFFFFFFF0
:10002000FFFFFFFFFFFFFFFFFFFFFFFFFFFFFFFFE0
:10003000FFFFFFFFFFFFFFFFFFFFFFFFFFFFFFFFD0
:020000040030CA
:080000008CFFFFF79FFFFFFFDB
:01000900FFF7
:00000001FF
