:0400000081EF00F09C
:100008009948994899489948400097484000994824
:1000180099489948994899489948994899489948D0
:1000280099484000400040009948994899489948A3
:1000380099489948994899489948994899489948B0
:1000480099489948994899484000400099489948E2
:100058009948994899484000994899489948994831
:100068009948994899489948994899489948994880
:100078009948994899489948400099489948994811
:100088009948994899489948994899489948994860
:100098009948994899489948400099484000400033
:1000A8009948994899489948994899489948994840
:1000B8009948994899489948994899489948994830
:1000C8009948994899489948994899489948994820
:1000D8009948994899489948994899489948994810
:1000E8004000994899489948400040004000400025
:0E00F8009948994899489948FF0096EF90F072
:10BFC800000000000000000000000000008FE6FDF7
:10BFD80070E6F8B2FFFFFFE6FE80E6FFED8D004950
:10BFE8009C018CE0C20856E0016BF99C00C208AFC6
:10BFF8009C018CE0C20856E001AF9C018CE0C2189D
:10C0080056E1026BF99C00D208AF8D004C8D0052AE
:10C018008D011E8D00590F441EA02C803C4529FE21
:10C0280039FF8D36106C037C954C6B2C803C45C2D7
:10C0380006D202A0E2A0E600E4ED006E29FE39FF78
:10C04800D6077DD613088C809CF7D2088C819C4635
:10C05800D2082C813CAA18FCA0E219FC08E2420391
:10C06800CF6D00B4C20248E060E0D202C282A208EA
:10C07800D2426D009518FC80E219FC6C817CA9D62F
:10C088000A2A7D012A6CFF7CCE8C809CFCD228A0D9
:10C09800E8D238023712268C809CA7D228A0E8D292
:10C0A80038D607128C809CA7C228A0E8C2386CFF3B
:10C0B8007CEF023712266C817C4608E3220738E0C1
:10C0C80008E2320628E070E370E22C013C43D620F7
:10C0D800EF50E250E3D62E7A2C013C34D620EFE61E
:10C0E800FE80E6FFB3D6077D8D05572C013C83D62D
:10C0F80020EF8D0131204279746573206672656581
:10C108000D0A00005A3830204261736564205A389D
:10C118002042415349432056657220342E37620D20
:10C128000A436F707972696768742028432920313F
:10C13800393738206279204D6963726F736F66747E
:10C148000D0A00004D656D6F72792073697A65205C
:10C158006E6F7420656E6F7567680D0A5468652088
:10C1680073797374656D2069732073746F7070656B
:10C17800642E0D0A00002B852CF92BA380481E4243
:10C1880026811EAF3093321F28E7313832DA32E188
:10C198003363338926EE341F809E24DD200C260C61
:10C1A80024F92518346635602537259725A9C54E05
:10C1B80044C64F52CE455854C4415441C94E5055B7
:10C1C80054C4494DD2454144CC4554C74F544FD22D
:10C1D800554EC946D24553544F5245C74F53554201
:10C1E800D2455455524ED2454DD3544F50CF555445
:10C1F800CF4ECE554C4CD7414954C44546D04F4BF1
:10C2080045C44F4B45D3435245454ECC494E455303
:10C21800C34C53D749445448CD4F4E49544F52D339
:10C228004554D245534554D052494E54C34F4E54A9
:10C23800CC495354C34C454152C34C4F4144C3535A
:10C24800415645CE4557D4414228D44FC64ED350C7
:10C258004328D448454ECE4F54D3544550ABADAA8D
:10C26800AFDEC14E44CF52BEBDBCD3474EC94E54BB
:10C27800C14253D55352C65245C94E50D04F53D3DD
:10C288005152D24E44CC4F47C55850C34F53D3494F
:10C298004ED4414EC1544ED045454BC445454BD074
:10C2A8004F494E54CC454ED3545224D6414CC153D9
:10C2B80043C3485224C8455824C2494E24CC454655
:10C2C8005424D24947485424CD494424800E420B73
:10C2D800E515AB112B13CE1A3F1415115010A210EF
:10C2E80066123B0DB2107310DF112F0E3A26901212
:10C2F800130EF526961EBD26F63437112F33FC3360
:10C30800EB33F0360D80A180A412630EB10AC90F79
:10C31800C1112F112F070F792E4A79271D7C296506
:10C328007C2A257F309D5018ED4618E74E46534E1F
:10C3380052474F4446434F564F4D554C4253444441
:10C348002F304944544D4F534C535354434E554644
:10C358004D4F4858424E8D011E8D0F68FFFFAF2686
:10C36800E00038E008E236E00028E008E436E000C3
:10C3780048E00C00AF000000354ACA99391C76988D
:10C388002295B3980ADD479853D199990A1A9F982C
:10C3980065BCCD98D6773E9852C74F80FFFFAF0156
:10C3A800FF1C000000140014000000008D096C8DB3
:10C3B80000008D00008D000081AAFFFE8147204506
:10C3C80072726F720020696E20004F6B0D0A0000B8
:10C3D800427265616B002C003C0404FFE314FEE22A
:10C3E800C20218FCA0E219FCA6E0816B01AFC252A0
:10C3F800A0E2C242A0E270E370E238E528E408E671
:10C40800420788E698E768E278E328E838E96D04A7
:10C418005F88E698E768E278E328E838E9D60A2AE8
:10C428004C005C0D50E250E3EB01AF023512248D55
:10C43800041FD604B370E570E450E850E970E37067
:10C44800E228E838E950E450E5D60A2AC202D204C4
:10C45800EB01AF80E480E28D048870E370E28C81A8
:10C468009C27C228A0E8C2384C00023512240235A5
:10C4780012248B0470E370E20CD0220338E00CFF26
:10C4880032027D04D328E004FFE314FEE250E250B8
:10C49800E3FB01AF7C0C8D05068C819C16C228A09D
:10C4A800E8C2388C809CA9D228A0E8D2387C028BBC
:10C4B800167C148B127C008B0E7C128B0A7C228BD0
:10C4C800067C0A8B027C18D6077D8C809C92D20849
:10C4D800D612F12C033C6B68E00C3FD60A5C02379D
:10C4E8001226C202D60A5CD60D9AD60A5C2C033CE8
:10C4F800FDD620EF8C809CA9C228A0E8C2386CFF2A
:10C508007CFED60A2A6D005908E252030E6B03D648
:10C518002E6B8B0450E450E5B2008C809C92D208BC
:10C52800D612F12C043C09D620EF2CFF3CFF8C805E
:10C538009CA9D228A0E8D238D6096C7D0569D60D09
:10C548009A0E00E06D056918FC70E170E0D60F6D79
:10C5580070E770E6D607DD48E050E650E750E05057
:10C56800E119FCFD0D5070E770E670E570E4B2006B
:10C578008C819C19D208D60D9A420018FC70E17083
:10C58800E0D606C67D05D450E050E119FC70E17094
:10C59800E06D10DACF70E570E4FD060D88E698E7E7
:10C5A80068E278E328E838E98C819C23C228A0E86F
:10C5B800C238C206D204A0E4A0E6D60A2AED05F1E4
:10C5C80028E438E58C819C23D228A0E8D23850E6AC
:10C5D80050E750E050E119FC6D067C8C819C23C229
:10C5E80028A0E8C23850E850E970E370E228E8383B
:10C5F800E950E450E50235122470E370E2D6047184
:10C6080050E250E38C819C23D228A0E8D23888E6F7
:10C6180098E768E278E328E838E9D22250E650E75C
:10C62800A0E2A0E2D272A0E2D262A0E26C807CAE6C
:10C63800C206D202A0E2A0E64200ED066FD607309D
:10C64800A0E288E698E768E278E328E838E928E68F
:10C6580038E7C202A0E2C21242016D0569A0E2A059
:10C66800E2A0E2B200C282A20818FCA0E219FCED26
:10C6780006A488E698E768E278E328E838E9D27201
:10C68800A0E2D2628D068D8C809CABC228A0E8C245
:10C698003848E258E3C202A0E2C212420118FC8004
:10C6A800E219FCEB01AFA0E2A0E2C202A0E2C222C2
:10C6B80038E0D60A2A28E438E5C20218FCA0E219B4
:10C6C800FCC22238E0EFEB01AFEF7B01AF8D06D063
:10C6D8006B01AF8C809CABC228A0E8C238B200D2F4
:10C6E80002A0E2D202A0E28C819C23D228A0E8D248
:10C6F800388C809CABC228A0E8C23880E28C819C30
:10C708001BD228A0E8D2388C809CFCC228A0E8C2A2
:10C71800388C819C10D228A0E8D238B200D60DB24D
:10C728008C819C23C228A0E8C2388C819C25D22801
:10C73800A0E8D2388C819C27D228A0E8D23850E4CF
:10C7480050E58C809CA7C228A0E8C23829FE39FF92
:10C758002C813C008C809CFED228A0E8D238B20004
:10C7680038E028E08C819C21D228A0E8D2388C813E
:10C778009C18D2088C819C2BD228A0E8D23870E370
:10C7880070E270E570E48C819C1BC228A0E8C23876
:10C79800AF0C3FD60A5C0C20D60A5C8D809BB20099
:10C7A8008C809CFBD2085C056C807CAEC202A6E043
:10C7B800206D08DD48E0A6E0226D090B42006D09F6
:10C7C800158C809CFBC2084200C202ED08DDA6E081
:10C7D8003F0C9E6D08DDC202A6E0307D0823A6E06E
:10C7E8003C7D08DD70E770E66C017CEC70E570E478
:10C7F8004C085CC770E570E44C7FC202A6E0617D1E
:10C80800084CA6E07BFD084C56E05FD202C2528875
:10C81800E698E768E278E328E838E9A0E2C212423D
:10C8280001DD085A4EC20256E07FEB01AFA205EDCA
:10C83800085A88E698E768E278E328E838E970E378
:10C8480070E2A0E6C20642005D08B258E008E4A61D
:10C85800E088ED0899D60D9A80E2A0E2C202A6E02F
:10C86800617D08A656E05FA2056D088150E250E39D
:10C878008D084C58E450E050E119FC88E698E768C8
:10C88800E278E328E838E9AF88E698E768E278E3F1
:10C8980028E838E908E550E450E550E650E7A0E21A
:10C8A800D206A0E65E26E03A6D08F0A6E049ED085B
:10C8B800F68C809CFBD20826E054ED07EB48E0C2DA
:10C8C800024200CF6D0915A2046D08DDA0E2D20670
:10C8D8005EA0E68D08FE2C803CADD206A0E6D2060E
:10C8E800A0E6D206AF8C809C91C2084200CF0C0013
:10C8F8008C809C91D208ED094200E46D096CD60A3F
:10C908005C8B0200E418FC80E219FC6D0963C2022A
:10C91800D60A5C8D097A00E418FC80E219FCD60A74
:10C928005CED097AD60A5CD613088D096C2C803C1C
:10C93800AE4C01B2008C809C91D208D60AAC58E06B
:10C94800A6E07F6D09248C809C91C20842006D0985
:10C958009E0C00D60A5CB200CF8C809C91D208084D
:10C96800E5A6E0076D0A05A6E003EB03D61308DF8A
:10C97800EB01AFA6E00D6D1300A6E0156D0966A6E4
:10C98800E0406D0963A6E05F6D0955A6E0086D09F2
:10C9980055A6E012ED09FF70E570E470E770E670E7
:10C9A800E370E21C00D212D6361B2C803CAED62097
:10C9B800EF50E250E350E650E750E450E58D097A35
:10C9C800A6E0207D097A08E4A6E0490C07FD0A22C2
:10C9D80008E5D2528C819C19D208A0E24ED60A5C96
:10C9E8008D097AD60A5C0C088D0A1C08E222066BAF
:10C9F80001AF08E32207AFC20250E850E970E370C4
:10CA0800E228E838E9C282A0E2A20850E850E970BA
:10CA1800E370E228E838E96D0D9A8D04EC18FC7093
:10CA2800E170E08C809C92C2084200CFED216A50F0
:10CA3800E050E119FC70E570E470E0A6E0207D0AA2
:10CA4800A28C809C8FC20848E08C809CF8C2084E5B
:10CA58006D0A9B00E4A204EB03D613080E8C809C9D
:10CA6800F8D20850E050E450E5D6360AAFD633E79E
:10CA780056E07FA6E00F6B01AF8C809C92C20860E5
:10CA8800E08C809C92D208B200AFD60F6D6B01AFDC
:10CA980050E450E5D606C670E570E4D60B5650E271
:10CAA80050E3C252A0E2C242A0E208E442056D058A
:10CAB80057D60B73D60E0970E570E4D61308C27208
:10CAC800A0E2C262A0E270E370E288E698E768E25A
:10CAD80078E328E838E9D62E7A0C2050E250E3D6DD
:10CAE8000A5CC202A0E242006D0ADDDD0B1E26E0F0
:10CAF8007F58E06C017CEDC206A0E64200DD0B36F3
:10CB080000E5ED0B3656E07FD60A5CC206A0E64289
:10CB180000DD0B448D0B2170E370E28C809C95C284
:10CB280028A0E8C2388C809C93D228A0E8D238503C
:10CB3800E250E3AF70E370E270E770E68C809C939C
:10CB4800C228A0E8C2386CFF7CFF123712268C80FE
:10CB58009C93D22818FCA0E819FCD23850E650E77C
:10CB680050E250E35B01AF70E370E28C809C95C2A9
:10CB780028A0E8C2388C809C93D228A0E8D238D666
:10CB880033E7A6E0036D0BCE50E250E38D0B738CB8
:10CB9800809C95C228A0E8C2388C809C93D228A09B
:10CBA800E8D2388D01240C648C819C18D208D611E7
:10CBB8005050E450E570E370E2D6112B8C819C1440
:10CBC800D228A0E8D2382C003C0204FFE314FEE28D
:10CBD800D6041F50E650E7ED0C4D0235122470E7DD
:10CBE80070E680E2C26280E2C272A0E2A0E270E374
:10CBF80070E28C819C14C228A0E8C238D60A2A5058
:10CC0800E250E3ED0C0F50E650E729FE39FF88E6C5
:10CC180098E768E278E328E838E95C08D604997070
:10CC2800E370E28C819C14C228A0E8C23850E85016
:10CC3800E970E370E228E838E970E370E28C809CE0
:10CC4800A9C228A0E8C23850E850E970E370E22889
:10CC5800E838E9D6166DD60A36A6D6166A70E37095
:10CC6800E2D62BF050E250E370E470E570E670E72E
:10CC78004C815C0068E578E6C202A6E0AB0C01EDE9
:10CC88000CD5D60D9AD6166A70E370E2D62BF0D67C
:10CC98002B6350E250E370E470E570E670E718FC2F
:10CCA80070E070E370E28C819C1BC228A0E8C23857
:10CCB80050E850E970E270E328E838E94C8170E404
:10CCC800D60E098C819C1BD228A0E8D238C202A6B5
:10CCD800E03A6D0D504200ED04ECA0E2C202A0E281
:10CCE800C21242016D0E5CA0E2C272A0E2C262886A
:10CCF800E698E768E278E328E838E98C809CA9D2CE
:10CD080028A0E8D23888E698E768E278E328E83887
:10CD1800E9D60D9A6C0C7CFF70E770E6EB01AF2644
:10CD2800E0807D1150A6E025FD04EC90E058E04C31
:10CD38000088E698E768E278E328E838E92C033CBD
:10CD48000C02351224C242A0E2C25270E570E48897
:10CD5800E698E768E278E328E838E9A0E2C202A6A4
:10CD6800E03A7B01AFA6E0206D0D9AA6E030EF0E09
:10CD780000E0AF88E698E768E278E328E838E98CCD
:10CD8800809CABC22818FCA0E819FCC2386D0DF0D5
:10CD980088E698E768E278E328E838E9D60F6D7006
:10CDA800E370E2D606C628E438E550E650E7FD1001
:10CDB800DA80E28C819C29D228A0E8D23888E698CB
:10CDC800E768E278E328E838E9AFD6002FEB01AF4F
:10CDD800D6001FA6E01B6B1BA6E0036B16A6E0138C
:10CDE8006B01AFD6001FA6E011EB01AFA6E0036B05
:10CDF8000A8BF00CFF8C809C9AD2086B01AF46E03E
:10CE0800C08B036B01AF8C819C1BD22818FCA0E857
:10CE180019FCD2388B0346E0FF50E450E58C809C27
:10CE2800A9C22818FCA0E819FCC23818FC70E170E7
:10CE3800E008E352020E6D0E968C819C1FD228A04A
:10CE4800E8D2388C819C1BC228A0E8C2388C819C0F
:10CE580021D228A0E8D238B2008C809C92D208D681
:10CE680012F150E050E119FC2C043C0FED05308D17
:10CE780005578C819C21C228A0E8C23808E24203E9
:10CE88007C206D050688E698E768E278E328E838AC
:10CE9800E98C819C1FC22818FCA0E8C2388C809CB1
:10CEA800A9D228A0E819FCD23888E698E768E27881
:10CEB800E328E838E9AFD626D86B01AF8C809C8E82
:10CEC800D208AF70E370E28C809C97C228A0E8C2B9
:10CED800384C0058E0023512248C809C97D22818D0
:10CEE800FCA0E819FCD23850E250E3AFC202A6E039
:10CEF80041FB01AFA6E05BEFAFD60D9AD6166AD616
:10CF08002B635D0F688C819C34C208A6E0907D2C51
:10CF1800A94C905C806C007C0070E370E2D62C47D2
:10CF280050E250E368E5EB01AF7C088D050618FC7C
:10CF380080E219FC6C007C00D60D9A7B01AF70E38F
:10CF480070E270E02C193C98D60A2A7D04EC28E699
:10CF580038E702371226023312220237122602332A
:10CF6800122250E026E03078E06C00023712268862
:10CF7800E698E768E278E328E838E950E250E38D7C
:10CF88000F776D073CD60F3B80E2D60D9A70E370A1
:10CF9800E28C809CFCC22818FCA0E819FCC2386D01
:10CFA800101050E250E3D60A362C70E770E6D60F20
:10CFB8003B80E2D60D9AED04EC50E850E970E3703E
:10CFC800E228E838E988E698E768E278E328E8386C
:10CFD800E908E3220778E008E2320668E07D04D336
:10CFE80070E370E28C819C23C228A0E8C2384C0010
:10CFF8005C2802351224D60A2AFD04D388E698E76D
:10D0080068E278E328E838E98C809CA7D228A0E871
:10D01800D23850E250E38C809CFCD228A0E8D23869
:10D0280050E250E38D073C6D0730D6073C4C0C5C52
:10D03800FF8D109E5C03D6049950E450E570E370B0
:10D04800E270E370E28C809CA9C228A0E8C2385044
:10D05800E850E970E370E228E838E90C8C70E07079
:10D06800E570E4D60F6DD6112F70E370E28C809CCA
:10D07800A9C228A0E8C238D60A2A50E250E318FC10
:10D08800A0E219FCFB03D606D07B03D606C628E42B
:10D0980038E518FC80E219FCFB01AF7C0E8D050613
:10D0A8006B01AF6CFFD6041529FE39FFA6E08C7C16
:10D0B80004ED050650E250E38C809CA9D228A0E834
:10D0C800D238A0E208E24203ED11158C819C19C206
:10D0D800084200ED05532C0C3CFF50E850E970E382
:10D0E80070E228E838E98B0450E250E35C3A8B029E
:10D0F8005C004C0008E558E448E0C2024200EB013D
:10D10800AFA204EB01AFA0E2A6E0226D11338D11AE
:10D1180039D61A4DD60A36B470E770E68C809CFA78
:10D12800C20818FC70E170E0D616A550E050E1196D
:10D13800FC50E850E970E370E228E838E98C819CFB
:10D148001BD22818FCA0E819FCD238C0E0D6167308
:10D158006D120370E370E28C819C31C238A0E8C282
:10D168002870E370E2A0E2A0E2C272A0E2C2628C80
:10D17800809CABC228A0E8C238D60A2AFD11DE8CF2
:10D18800809CA7C228A0E8C238D60A2A50E650E7F1
:10D19800FD11F42C813C0CD60A2AFD11F48B0450A5
:10D1A800E650E7D624B288E698E768E278E328E80C
:10D1B80038E9D62020D624B250E250E3D62C1150BC
:10D1C800E250E3AF70E370E2D62C0D50E650E75022
:10D1D800E250E3AFD626D8C20248E0A6E08C6D1232
:10D1E80026D60A368880E258E700E508E46D0D5E29
:10D1F800D60F73A6E02C6B01AF8D1228D616A5C2E8
:10D2080002A6E0886D124CD60A36A980E2D6166DC1
:10D21800D62B636D112FD60D9A7D10A28D0D5B80D4
:10D22800E2D60D9A6D1308EB01AFA6E0A56D135E6B
:10D23800A6E0A86D135E70E370E2A6E02C6D133BC8
:10D24800A6E03B6D139750E450E5D616A570E37041
:10D25800E28C809CFAC2084200CFED12E5D62E95EA
:10D26800D620641C20D2128C819C31C238A0E8C21E
:10D2780028C2828ED2828C819C31C238A0E8C22812
:10D288008C809C8FC20848E04E6D12DF4E8C809CCB
:10D29800F8C208C282020800E0A2047B03D6130881
:10D2A800D620F2B200CF6B03D620F250E250E38DC5
:10D2B800125E8C809CF8C2084200CFEB01AF8D1340
:10D2C800081C00D2122C803CAD0C0DD60A5C0C0A4E
:10D2D800D60A5CB200CF8C809CF8D2088C809C8ED9
:10D2E800C20800E0EB01AF18FC70E170E0B200CFBB
:10D2F800D60A5C50E050E119FC8D13218C809C907B
:10D30800C20848E08C809CF8C208A2047B03D613AC
:10D3180008FD139726E00EFD135360E08D138A185D
:10D32800FC70E170E0D626D5D60A362980E250E0B6
:10D3380050E119FC26E0A870E370E26D13838C803D
:10D348009CF8C20860E00207FD13970E48E00C2025
:10D35800D60A5C00E4ED138F50E250E3D60D9A8DA7
:10D3680012663F5265646F2066726F6D2073746138
:10D3780072740D0A008C819C1AC2084200CFED0419
:10D38800D850E450E52C133CA1D620EF8D07C5D624
:10D398001FD4C202A6E0220C008C809C92D208ED19
:10D3A80013F1D62066D60A363B70E370E2D620F237
:10D3B8008B0470E370E2D607D050E450E57D0E553B
:10D3C800A0E2C20280E2420070E570E46D11271C01
:10D3D8002CD2128D142870E370E28C819C29C2280B
:10D3E800A0E8C23846E0AF8B02B2008C819C1AD20A
:10D3F8000850E850E970E370E228E838E98D1443F2
:10D40800D60A362CD61A4D50E850E970E370E22857
:10D41800E838E970E770E6C202A6E02C6D14908C3B
:10D42800819C1AC2084200CFED155E0C3FD60A5CFB
:10D43800D607D050E650E750E450E57D0E55A0E2FF
:10D44800C20280E2420070E570E46D112770E77057
:10D45800E68C809CFAC20842006D14E1D60D9A68E9
:10D46800E048E0A6E0226D14BB8C819C1AC20842F9
:10D478000068E06D14B76C3A4C2C80E2D6206A88BC
:10D48800E698E768E278E328E838E92C143CFA5093
:10D49800E850E970E370E228E838E970E770E68D53
:10D4A8001192D60D9AD62D6B50E850E970E370E2D0
:10D4B80028E838E9D62C0D50E250E380E2D60D9AE0
:10D4C8006D1508A6E02CED13B450E850E970E37030
:10D4D800E228E838E980E2D60D9AED143F50E6508C
:10D4E800E78C819C1AC208420088E698E768E278CF
:10D4F800E328E838E9ED0DF270E770E6C212420160
:10D508002C153C4D6B03D620EF50E250E3AF3F455E
:10D51800787472612069676E6F7265640D0A00D64F
:10D52800112B4200ED159FA0E2C202A0E2C21242F6
:10D53800017C066D0506A0E2C272A0E2C26288E61E
:10D5480098E768E278E328E838E98C819C16D228C5
:10D55800A0E8D23888E698E768E278E328E838E96E
:10D56800D60D9AA6E083ED155E8D14906C007C00B4
:10D578006B03D61A4D8C819C1BD228A0E8D238D6D2
:10D588000415ED04F429FE39FF88E668E778E870A9
:10D59800E770E6C20218FCA0E219FC18FC70E17002
:10D5A800E070E770E6D62BD850E850E970E370E2F7
:10D5B80028E838E988E228E338E870E370E2D627FB
:10D5C8001250E250E3D62C0D50E250E3D62BF47003
:10D5D800E370E2D62C4750E250E350E450E52204D1
:10D5E800D62BF488E448E558E888E668E778E86DDB
:10D5F800164E88E698E768E278E328E838E98C80F0
:10D608009CA9D228A0E8D23838E528E48D0CFB295B
:10D61800FE39FF8C819C1BC228A0E8C238C202A632
:10D62800E02CED0CFFD60D9AD615AFD616A5420004
:10D63800CF8B01DF8C809CFAC208120018E0C0E191
:10D64800C0E1C0E1C0E1B21088E1C0E1C0E1B218B8
:10D6580088E1C0E1B21856E101EB044200CFAF8D7A
:10D668000504D60A362880E26C0070E770E65C0193
:10D67800D60499D617828C819C1DD228A0E8D2386E
:10D688008C819C1DC228A0E8C23850E450E508E40B
:10D69800A6E0787B03D6166DC2026C0026E0B37D47
:10D6A8001705A6E003FD1705A6E00110E0B206A2E3
:10D6B8000668E07D04EC8C819C12D228A0E8D23860
:10D6C800D60D9A8D16DB08E64200ED195EC2028C73
:10D6D800819C12D228A0E8D23826E0ACFB01AFA684
:10D6E800E0077B01AF78E08C809CFAC20800E0423A
:10D6F80007CF08E76D238690E0020778E02C033C0B
:10D70800560237122608E4C262A2067B01AFA0E2E5
:10D71800D6166D70E570E44C165CBF70E570E44891
:10D72800E758E6D62BB578E468E5C242A0E2C252D3
:10D73800A0E270E570E48C819C12C228A0E8C2388F
:10D748008D16A9B200CF8C809CFAD208D60D9A7C8F
:10D75800246D05067D2D6BD60F2BFB66A6E026EB08
:10D7680014D60D9AA6E0486D34E8A6E0426D35A6B9
:10D778007C026D0506A6E0AC6BC9A6E02E6D2D6B8C
:10D78800A6E0AD6B1FA6E0226D2066A6E0AA6D1A82
:10D7980014A6E0A76D1F1A26E0B6FB56D616A1D62A
:10D7A8000A3629AF6C7DD616A98C819C1DC228A08B
:10D7B800E8C23870E370E2D62BA9D6166D50E25055
:10D7C800E3AFD61A4D70E370E288E698E768E2782E
:10D7D800E328E838E98C819C31D238A0E8D2288C3B
:10D7E800809CFAC2084200CFEB03D62BD850E250F7
:10D7F800E3AF4C0090E058E070E570E4D60D9A086D
:10D80800E5A6E0317D18A0D616A1D60A362CD61684
:10D818007288E698E768E278E328E838E98C819C22
:10D8280031C238A0E8C22850E850E970E370E22815
:10D83800E838E970E370E288E698E768E278E32878
:10D84800E838E9D626D888E698E768E278E328E851
:10D8580038E950E850E970E370E228E838E98D18B3
:10D86800B7D617DB50E850E970E370E228E838E9EA
:10D878006C177CF970E770E64C015CB50235122430
:10D88800C242A0E2C23228E430E200E6A6E0ADEBF4
:10D8980001AFA6E02DEB01AF6EA6E02BEB01AFA622
:10D8A800E0ACEB01AF80E2AF46E0AFCF8B03B20054
:10D8B800CF18FC70E170E0D6166DD60F4450E050DA
:10D8C800E119FC88E698E768E278E328E838E95047
:10D8D800E450E550E850E970E370E228E838E98858
:10D8E800E698E768E278E328E838E9D62BDB18FC05
:10D8F80070E170E0D60F4450E050E119FC50E4505C
:10D90800E508E52C1E3C9EED1953520758E008E443
:10D91800520630E2420758E008E44206CF30E22CD3
:10D92800193C7C8C809CFAC208C0E008E610E078BC
:10D93800E06C6408E4A2067B01AF8D1752197E08DB
:10D94800E54200CFC0E050E450E550E650E718FC4F
:10D9580070E170E0D616732C1A3C0370E370E26D28
:10D968002C47B200CF8C809CFAD20870E770E6D6BC
:10D978002455C202A0E2A0E2C252A0E2C24250E68E
:10D9880050E770E570E470E0D6246BD62BF450E0D5
:10D9980068E050E250E308E74206CFEB01AF08E643
:10D9A80026E001FB01AFB200CFA2070E7B01AF005A
:10D9B800E600E7C204C282A0E2A0E4A2086D19D57D
:10D9C800EF8D2B7E0E120050E450E5520406E0FF66
:10D9D80032008D2B886C5AD616A9D6166DD60F44F0
:10D9E80008E760E058E008E660E0D61E9E50E45084
:10D9F800E58D16BF80E2D60D9AEB01AFD60A362C1C
:10DA08004C1A5C3370E570E446E0AFCF8B03B2008C
:10DA1800CF8C809CF9D208C242D60F2B7D04ECB281
:10DA280000CF58E08C809CFAD208D60D9A7D1A75E2
:10DA3800D60F2B7D1A8358E0D60D9A7D1A77D60F0C
:10DA48002BFD1A7726E024ED1A990E8C809CFAD2C9
:10DA580008E0E0020558E0D60D9A8C819C18C208AF
:10DA680000E06D1C5ADD1AAFC20226E0286D1BD8F3
:10DA7800B200CF8C819C18D20870E370E268E47819
:10DA8800E58C819C2BC228A0E8C238D60A2A6C8172
:10DA98007C2D6D2A098C819C25C228A0E8C2388873
:10DAA800E698E768E278E328E838E98C819C23C2A5
:10DAB80028A0E8C238D60A2A6D1B1F08E5C282A032
:10DAC800E22208ED1B0B08E4C282220818FCA0E23F
:10DAD80019FC6D1BAAA0E2A0E2A0E2A0E28D1AF454
:10DAE80050E250E350E850E970E370E228E838E982
:10DAF80070E770E66C187C04D60A2A50E650E76D89
:10DB08001BBB50E850E970E370E228E838E970E39D
:10DB180070E270E570E44C005C068C819C27C2289A
:10DB2800A0E8C23870E370E20235122450E450E5F0
:10DB380070E370E2D6047150E250E38C819C27D2E6
:10DB480028A0E8D23828E438E58C819C25D228A082
:10DB5800E8D23880E21C00D212D60A2AED1B925075
:10DB6800E650E7D272A0E2D262A0E288E698E768BF
:10DB7800E278E328E838E950E250E3AF8C819C343E
:10DB8800D2082C043C088C819C31D23818FCA0E8BF
:10DB980019FCD22850E250E3AF70E370E28C809C0D
:10DBA800F9C228A0E8C23850E850E970E370E228CA
:10DBB800E838E968E070E670E570E4D60F3850E4BC
:10DBC80050E550E088E698E768E278E328E838E925
:10DBD80050E850E970E370E228E838E970E370E251
:10DBE80088E698E768E278E328E838E90E68E0C252
:10DBF80002A6E02C6D1BF4D60A36298C819C1DD216
:10DC080028A0E8D23850E250E38C809CF9D228A0B2
:10DC1800E8D2387C0070E770E68B0A70E370E2188F
:10DC2800FC70E170E08C819C25C228A0E8C2388B8A
:10DC3800040237122688E698E768E278E328E8388D
:10DC4800E98C819C27C228A0E8C23888E698E76852
:10DC5800E278E328E838E9D60A2A6D1CDFC202A078
:10DC6800E2A205ED1CA9C202A20418FCA0E2C2723D
:10DC7800A0E2C262A0E219FCED1C708C809CF9C283
:10DC8800084200CFED04F850E050E119FC48E25892
:10DC9800E36D2A09C28222086D1DD37C108D05060A
:10DCA8006C007C0450E050E119FC6D0F68D252A062
:10DCB800E2D242A0E258E0D60499A0E2A0E28C8128
:10DCC8009C12D228A0E8D238D252A0E28C809CF9CB
:10DCD800C20810E008E54C005C0BFD1D2250E45022
:10DCE800E5A0E4D252A0E2D242A0E218FC70E170B2
:10DCF800E070E370E2D62D2A88E698E768E278E3D8
:10DD080028E838E950E250E350E050E119FC00E01F
:10DD1800ED1D1518FC70E170E048E658E788E698B4
:10DD2800E768E278E328E838E9023712267D04D369
:10DD3800D604B38C819C27D228A0E8D23880E21C74
:10DD480000D212D60A2AED1D7CA0E468E08C819CE2
:10DD580012C228A0E8C238C27288E698E768E2785A
:10DD6800E328E838E9023312220235122488E698BB
:10DD7800E768E278E328E838E918FC80E280E219ED
:10DD8800FCD272A0E2D262A0E219FC50E050E11984
:10DD9800FC7D1E3348E058E0C202A0E28B0450E24A
:10DDA80050E3C272A0E2C262A0E250E850E970E318
:10DDB80070E228E838E970E0D60A2AFD1CDA70E338
:10DDC80070E2D62D2A50E650E70237122650E000BE
:10DDD800E048E258E3ED1DDD02331222023312223D
:10DDE80050E450E50235122488E698E768E278E3C3
:10DDF80028E838E98C819C1DC22818FCA0E819FC89
:10DE0800C238AF8C819C27C228A0E8C23888E6981F
:10DE1800E768E278E328E838E92C003C0004FFE3EF
:10DE280014FEE28C809CFAC2084200CF6D1E94D684
:10DE38002455D6218C8C809CA7C228A0E8C238889B
:10DE4800E698E768E278E328E838E98C819C10C214
:10DE580028A0E8C23808E3220758E008E23206485A
:10DE6800E568E47C002C803CFAD2724C908D2B8EB5
:10DE78008C809CF8C20848E0B200CF8D1EA0D61F47
:10DE8800F4D61FD44C115C2B70E570E470E770E693
:10DE9800D60A3628D61A4D70E370E288E698E76805
:10DEA800E278E328E838E980E2C26280E2C2725090
:10DEB800E250E3D6166DD60A3629D60A36B448E2B9
:10DEC80058E350E850E970E370E228E838E9D252A4
:10DED80018FCA0E219FCD2428D2057D61FF470E737
:10DEE80070E6D617DBD6166D50E850E970E370E29D
:10DEF80028E838E9C272A0E2C262A0E208E6420756
:10DF0800CF6D04FCC202A0E2C22238E070E370E2E6
:10DF18008C819C2BC228A0E8C23850E850E970E3F5
:10DF280070E228E838E98C819C2BD228A0E8D23806
:10DF38008C819C2FC228A0E8C23870E370E28C81E3
:10DF48009C2DC228A0E8C23870E370E22C813C2DD9
:10DF580070E770E6D62C0D50E250E3D6166A80E2E0
:10DF6800D60D9AED04EC50E250E38C819C2DD2281A
:10DF7800A0E8D23850E250E38C819C2FD228A0E848
:10DF8800D23850E250E38C819C2BD228A0E8D238BA
:10DF980050E250E3AF70E370E28C809CA9C228A0E5
:10DFA800E8C238A0E208E2420350E250E36B01AF56
:10DFB8007C168D0506D60A36A70C808C819C18D253
:10DFC80008C212420148E0D61A588D166DD6166D51
:10DFD800D62E95D62064D624554C255C3070E57035
:10DFE800E4C202A0E2A0E270E370E2D6211050E29F
:10DFF80050E3C252A0E2C242D6204B70E370E2382E
:10E00800E0D6244150E650E7AFD621102C813C0CD5
:10E0180070E370E2D202A0E2A0E2D272A0E2D26281
:10E0280050E250E3AF80E24C2268E470E370E25CB7
:10E03800FFA0E2C2025E42006D2084A2066D208429
:10E04800A204ED2070A6E022EB03D60D9A50E8500A
:10E05800E970E370E228E838E9A0E288E698E76822
:10E06800E278E328E838E908E5D6204B6C817C0C97
:10E078008C809CFEC228A0E8C2388C819C31D238A2
:10E08800A0E8D2280C018C809CFAD208D62C11D694
:10E098000A2A8C809CFED22818FCA0E819FCD238E9
:10E0A80050E250E3C2026B01AF7C1E8D0506A0E270
:10E0B800D62064D62455D62BF47E00E7EB01AFC2F8
:10E0C80004D60A5CA6E00DEB03D61312A0E48D205B
:10E0D800F942008B0650E050E119FC18FC70E17021
:10E0E800E08C809CA7C228A0E8C23888E698E76838
:10E0F800E278E328E838E98C819C10C228A0E8C2BD
:10E108003860E058E04CFF02351224A0E2D60A2A13
:10E118007D21718C819C10D228A0E8D238A0E28899
:10E12800E698E768E278E328E838E950E050E11932
:10E13800FCAF50E050E119FC7C1A6D0506A20018EE
:10E14800FC70E170E04C215C1470E570E48C809CFC
:10E15800FCC228A0E8C2388C819C10D228A0E8D242
:10E16800382C003C0070E370E28C809CA7C228A089
:10E17800E8C23870E370E28C819C00C228A0E8C233
:10E188003888E698E768E278E328E838E98C809CE4
:10E19800FEC228A0E8C23888E698E768E278E32853
:10E1A800E838E9D60A2A4C215CC0ED22B48C819C5F
:10E1B80023C228A0E8C23888E698E768E278E3280E
:10E1C800E838E98C819C25C228A0E8C23888E698FE
:10E1D800E768E278E328E838E9D60A2A6D2231C2EE
:10E1E80002A0E2A0E24200CFD622BB8D21F650E485
:10E1F80050E588E698E768E278E328E838E98C8112
:10E208009C27C228A0E8C23888E698E768E278E345
:10E2180028E838E9D60A2A6D2334D62BF408E770A3
:10E22800E370E2023512244200CFDD222D8C819C5E
:10E2380012D228A0E8D23850E250E3C2524C000271
:10E2480035122402351224A0E288E698E768E278BD
:10E25800E328E838E98C819C12C228A0E8C23888F3
:10E26800E698E768E278E328E838E9D60A2A6D22D2
:10E27800314C225C8870E570E446E080C20218FCEC
:10E28800A0E2A0E2C272A0E2C262A0E219FC5B01B5
:10E29800AF4200EB01AF48E258E38C819C10C228E2
:10E2A800A0E8C238D60A2A28E438E5FB01AF50E2D4
:10E2B80050E350E850E970E370E228E838E9D60AFC
:10E2C8002A50E850E970E370E228E838E970E37012
:10E2D800E228E438E57B01AF50E450E550E050E136
:10E2E80019FC50E050E119FC70E370E270E770E649
:10E2F80070E570E4AF50E650E750E250E308E342BF
:10E3080002CFEB01AF80E2C24280E2C25270E370FA
:10E31800E280E280E2C2322C000235122468E478FE
:10E32800E580E248E258E38C819C10C228A0E8C24C
:10E3380038D6047450E250E3D252A0E2D24238E513
:10E3480028E480E28D219670E570E470E370E28C39
:10E35800819C31C238A0E8C22850E850E970E370C7
:10E36800E228E838E9D6178250E850E970E370E20D
:10E3780028E838E9D61672C20270E370E28C819CF4
:10E3880031C238A0E8C22870E370E2C28202087C79
:10E398001C7D0506D6204850E650E7D6246B50E889
:10E3A80050E970E370E228E838E9D6245F70E3703A
:10E3B800E28C819C0EC228A0E8C23888E698E768FB
:10E3C800E278E328E838E9D62423D624232C163C1F
:10E3D800B550E850E970E370E228E838E970E37076
:10E3E800E28D20AB50E250E350E850E970E370E270
:10E3F80028E838E9C202A0E2A0E2C252A0E2C24282
:10E4080038E03E00E3EB01AFC204D206A0E4A0E688
:10E418008D2442D616728C819C31C238A0E8C2285D
:10E4280088E698E768E278E328E838E9D624B288ED
:10E43800E698E768E278E328E838E96B01AF70E727
:10E4480070E668E478E580E6C2528C819C10C228A8
:10E45800A0E8C238D60A2AED24AD48E002351224D5
:10E468008C819C10D22818FCA0E819FCD23850E204
:10E4780050E3AF8C809CFEC228A0E8C23880E2C27C
:10E488004280E2C25280E280E2D60A2A6B01AF8C57
:10E49800809CFED22818FCA0E819FCD238AF4C1E8C
:10E4A8005CB570E570E4D62452B200CF68E08C8089
:10E4B8009CFAD208C2024200CFAF4C1E5CB570E590
:10E4C80070E4D624E56D0F6818FCA0E2A0E2C272E1
:10E4D800A0E219FCC262C206AF0C01D62048D626BB
:10E4E800DB8C819C0EC23818FCA0E819FCC228D22B
:10E4F8007250E450E58D20ABD62662B200CF50E8CA
:10E5080050E970E370E228E838E958E070E370E217
:10E51800C202A2047D255A08E48B025C0070E570F3
:10E52800E4D6211050E450E550E250E370E370E285
:10E53800A0E2A0E2C242A0E2C22238E44C000235C6
:10E54800122448E258E3D6204B38E0D6244150E65E
:10E5580050E7D6246B8D20ABD6266250E650E77084
:10E56800E770E6C20622048D253D88E698E768E252
:10E5780078E328E838E9C202D626724E00E46D0F27
:10E588006870E570E47CFFA6E0296D25D3D60A36CD
:10E598002CD626D8D60A362950E050E119FC50E886
:10E5A80050E970E370E228E838E94C255C4B70E5E7
:10E5B80070E400E0C282A2084C007B01AF58E0C2C0
:10E5C800022205A20748E0FB01AF48E7AFD624E5E1
:10E5D8006D27F278E0A0E2A0E2C202A0E2C22238EF
:10E5E800E070E370E202371226C242D26250E8506D
:10E5F800E970E370E228E838E970E570E4C202A641
:10E60800E024ED2649D634E88B0EA6E025ED265405
:10E61800D635A68B03D62D6B50E450E550E250E377
:10E62800D242AF88E698E768E278E328E838E9D686
:10E638000A362950E450E550E650E770E570E448A2
:10E64800E7AFD626DB8C809C8CD208D6808B8D1EBB
:10E65800B5D626BF8D804BD626BF18FC70E170E07A
:10E668007C0080E2D60D9A6D26B0D60A362CD626C6
:10E67800D850E450E5D6808BB20752046D26B4AF6B
:10E68800D626D88C809C8CD2088C809C4CD208D6FC
:10E698000A362C8D26D8D60D9AD6166AD60F3E087D
:10E6A800E64200CFED0F6880E2D60D9A08E7AFD6B4
:10E6B8000F44C2068D1EB5D6166AD60F4470E77091
:10E6C800E6D60A362CD626D850E650E7D206AF2C26
:10E6D800303C6BD62BF48D2728D62BF48B0850E4CE
:10E6E80050E550E650E7D62BA908E44200CFEB01ED
:10E6F800AF8C819C34C2084200CF6D2BDB2204FD15
:10E70800276A60E00E88E698E768E278E328E83848
:10E71800E9D62BB588E698E768E278E328E838E98F
:10E72800D62BDB50E450E550E650E7A6E0197B0114
:10E73800AF18FC70E170E0D62C2128E050E050E1E1
:10E7480019FCD628A74202CF2C813C31DD27A6D65A
:10E758002862FD282CA0E2C2828ED2826D05003C80
:10E7680001D628C98D282CB200CF220448E0C20265
:10E77800320778E018FCA0E219FCC202320668E011
:10E7880018FCA0E219FCC202320558E0FB03D628A7
:10E798008138E428E7B20048E008E54200ED280E99
:10E7A80058E668E228E338E008E426E008A6E0E056
:10E7B800ED27D6B200CF8C819C34D208AF00E4029A
:10E7C80033122208E610E068E008E5120058E0DDA0
:10E7D80027FC08E478E248E342006D282C2C813CB1
:10E7E80034C2820208D202FD27F2EB01AF08E42C02
:10E7F800813C344200DB03D62849C242A0E2C2026F
:10E8080056E080B20558E08D2BDB7E6B01AF6E6B56
:10E8180001AF5E6B01AF5C80C2828ED2826B01AFAA
:10E828008D0500C202020778E018FCA0E219FCC2BC
:10E8380002120668E018FCA0E219FCC20212055890
:10E84800E0AF2C813C35C20260E0D202B200CF3882
:10E85800E0220448E008E3320778E008E33206687B
:10E86800E008E3320558E0AF4C0026E0087D28BAFE
:10E8780048E778E668E55C008D28A906E00938E0F5
:10E88800B200CF00E3EB01AF08E5C0E058E0C0E616
:10E89800C0E7C0E48D28BF0000008103AA56198094
:10E8A800F122768045AA3882D62B6318E0C0E1C0F1
:10E8B800E1C0E1C0E1B21088E1C0E1C0E1B218886E
:10E8C800E1C0E1B21856E1016D0F682C813C34C2F9
:10E8D800024C805C356C047CF3220418FC70E170F7
:10E8E800E0D24270E770E670E570E4D6272850E47D
:10E8F80050E550E650E74ED62A2D2C283CD6D62790
:10E90800182C283CDAD631BD4C805C806C007C0029
:10E91800D6272850E050E119FCD62E444C805C31B3
:10E928006C727C188B0850E450E550E650E7D62B03
:10E9380063EB01AF3C00D62AF508E58C819C43D2F5
:10E948000888E698E768E278E328E838E98C819C4B
:10E9580044D228A0E8D2384C005C0068E478E42C63
:10E96800273CD070E370E22C293CB670E370E2706B
:10E97800E370E22C813C31C202A0E242006D2A0E13
:10E9880070E370E23C08C0E028E008E5FD29F87073
:10E99800E370E28C819C44C228A0E8C23802371296
:10E9A8002688E698E768E278E328E838E950E250F4
:10E9B800E38C819C43C2081205C0E058E0C0E6C061
:10E9C800E7C0E400E308E2ED29C550E250E3AF48B0
:10E9D800E778E668E558E0AFD62BB54C845C206C48
:10E9E800007C00D62BDB50E450E550E650E7D62BF0
:10E9F800636D04F03CFFD62AF5C2828ED282C282B1
:10EA08008ED28280E2C2028C809C5ED20880E2C2F2
:10EA1800028C809C57D20880E2C2028C809C50D223
:10EA28000848E588E698E768E278E328E838E9B234
:10EA38000058E068E078E08C809C62D20870E3704F
:10EA4800E270E570E408E3D6804E36E000EFFD2A78
:10EA5800A38C809C62D20850E050E150E050E1194C
:10EA6800FCDF8B0850E450E550E250E308E50E0067
:10EA7800E0DB05C0E08D282EC0E010E010E710E6CE
:10EA880010E50233122208E410E48C809C62C2086C
:10EA980010E0D20808E542064207CFED2A7C70E371
:10EAA80070E22C813C34C28200E8D28250E250E30A
:10EAB800ED2A7C8D050008E44200CF6D2B3408E375
:10EAC8002C813C34C282B208020448E0C0E0B2049F
:10EAD80008E4DD2B3106E080D2026D2A09D62C210C
:10EAE800D20218FC80E219FCAFD62B6360E050E23A
:10EAF80050E34200CF50E250E3DD27F28D0500D607
:10EB08002BF008E44200CFEB01AF06E0027D0500E0
:10EB180048E0D627282C813C34C2828ED2826B01F1
:10EB2800AF8D05008C819C34C2084200CFEB01AF49
:10EB38008C819C33C208A6E02F8B0260E010E03283
:10EB4800006B01AF0EAFD62B634C886C007C002C99
:10EB5800813C3458E0D2424C00A0E21C80D2121012
:10EB6800E08D27CBD62B635B01AF2C813C33C202EF
:10EB7800B6E080D202AF50EA50EB8C819C31C218CB
:10EB8800A0E870E1C218A0E870E1C218A0E870E13E
:10EB9800C21870E170EB70EAAFD62BF48C819C310F
:10EBA800D278A0E8D268A0E8D258A0E8D248A0E875
:10EBB800AF2C813C31C27218FCA0E2C262A0E2C252
:10EBC80052A0E219FCC24218FCA0E219FCAF6C8109
:10EBD8007C314C04C206D202A0E6A0E200E4ED2C8F
:10EBE80013AF2C813C33C20290E0DFC0E0D202EFC9
:10EBF800C0E0A0E2A0E2D20208E590E0DFC0E05861
:10EC0800E0C0E0C282B208AF08E44200CF6D2B63D7
:10EC18002C2B3C7A70E370E2D62B6308E5EB01AF4E
:10EC28002C813C33C282B20808E5DB01AFD62C74D4
:10EC3800C0E0B205AFA0E208E4C282A2086B01AF4F
:10EC480080E208E5C282A2086B01AF80E208E6C252
:10EC580082A2086B01AF80E208E7C28222086B013A
:10EC6800AF50E250E350E250E3AF48E058E068E0CC
:10EC780078E04200CFEB01AF70E370E2D62BF0D61C
:10EC88002C21C282B20828E0DB03D62CE80C98229B
:10EC980004D628A708E210E0FB03D628494C00FB5D
:10ECA80003D6288150E250E3AF80E608E652070E0B
:10ECB8006B01AF18FC80E419FCAF2C813C34C20214
:10ECC800A6E0988C819C31C2087B01AFC202D62C89
:10ECD800A91C98D21208E718FC70E170E008E5104A
:10ECE800E0D627CB50E050E119FCAF2C003C0008DF
:10ECF800E44205CFEB01AF0C10023312227D1CDA7F
:10ED080088E698E768E278E328E838E902331222CF
:10ED180088E698E768E278E328E838E9FD2D650297
:10ED28003512247D1CDA00E0ED2D38AFA6E02D1851
:10ED3800FC70E170E06D2D7FA6E02B6D2D7F80E2E9
:10ED4800D627F248E068E078E060E058E0D60D9A0F
:10ED58007D2E0EA6E02E6D2DB6A6E045ED2DBAD679
:10ED68000D9AD618C9D60D9A7D2E556EED2DBAB2CC
:10ED780000CF220778E05E5E6D2D8C70E370E208AC
:10ED8800E722045B03D62DF9DD2DDA18FC70E1705B
:10ED9800E0D62A1750E050E119FC0EED2DC250E6DE
:10EDA80050E750E050E119FCEB03D62BA988E69810
:10EDB800E768E278E328E838E9AFEB01AF18FC70C0
:10EDC800E170E0D62B3E50E050E119FC00E0AF7056
:10EDD800E770E668E008E4120548E070E570E47062
:10EDE800E370E270E770E6D62B3E50E050E119FC84
:10EDF80026E030D62E4450E250E350E450E550E689
:10EE080050E78D2D8CD62BB5D62B8850E450E55085
:10EE1800E650E78D272808E790E090E0020790E0A9
:10EE2800C282020826E03078E08D2DA470E370E2FB
:10EE38002C043C04D620EF50E250E388E698E768BB
:10EE4800E278E328E838E9B2004C98D62B8E2C20DB
:10EE58003CED70E370E22C813C3670E370E2D62B17
:10EE6800631C20D212DD2EAB1C2DD21218FCA0E29E
:10EE780019FC1C30D2126D302970E370E2DB03D626
:10EE88002BA9B200CF18FC70E170E0D6303A4C9153
:10EE98005C436C4F7CF8D62C4718E0C0E1C0E1C059
:10EEA800E1C0E1B21088E1C0E1C0E1B21888E1C078
:10EEB800E1B21856E101EB2550E050E119FCD62DDE
:10EEC800FC18FC70E170E08D2ECDD62A1750E0506A
:10EED800E119FC0E18FC70E170E0D6303AD6270E26
:10EEE8000ED62CA9D62BDB4C035C0650E050E1195A
:10EEF800FC02050E5D2F41A6E008FD2F410E48E0FB
:10EF08000C0200E000E050E250E318FC70E170E011
:10EF18006C307C6F00E4ED2F641C2ED212A0E21C32
:10EF280030D212A0E200E41C2ED212EB03D62C063B
:10EF380070E570E470E370E270E770E6D62BF0508D
:10EF4800E250E34C2F4E08E7C282220878E018FC12
:10EF5800A0E219FC08E6C282320868E018FCA0E2C8
:10EF680019FC08E5C282320858E018FC80E280E209
:10EF780019FCFD2F84D6286218FCA0E219FCD62BB8
:10EF8800DB88E698E768E278E328E838E950E25059
:10EF9800E3D242A0E250E450E500E5ED2F6400E43E
:10EFA8006D2FF480E2C202A6E0306D2FE2A6E02EBB
:10EFB8006B03D62C0650E050E119FC6D30331C452C
:10EFC800D21218FCA0E219FC1C2BD212DD30151C41
:10EFD8002DD21260E00E4C2F4E26E00AFD301706A7
:10EFE800E03A18FCA0E219FCD24218FCA0E2D202D6
:10EFF800A0E219FCD25250E250E3AF4C945C746C1E
:10F00800237CF7D62C4750E250E318E0C0E1C0E17A
:10F01800C0E1C0E1B21088E1C0E1C0E1B21888E106
:10F02800C0E1B21856E101ED2F0930E2000000807E
:10F03800A08601102700E803006400000A00000110
:10F0480000002C2B3CA950E850E970E370E228E856
:10F0580038E930E2D62BB52C303C6BD62BD850E4AF
:10F0680050E550E650E7D62B6308E46D3138DD30C3
:10F07800B64200CF6D04F04200CF6D27F570E770FF
:10F08800E670E570E408E546E07FCFD62BF0DD308A
:10F09800F470E770E670E570E4D62CF950E450E5BA
:10F0A80050E650E718FC70E170E0D62C4750E2506B
:10F0B800E308E2C0E050E250E38C819C33D2381878
:10F0C800FCA0E819FCD22850E250E38C819C31D294
:10F0D8003818FCA0E819FCD228FB03D63081EB03D2
:10F0E800D62BA970E770E670E570E4D628E750E4FF
:10F0F80050E550E650E7D6296DD62BB54C815C38E3
:10F108006CAA7C3BD6296D8C819C34C208A6E08809
:10F11800FD2B28D62CF906E08006E0027D2B281866
:10F12800FC70E170E02C283CD6D62712D6295B501B
:10F13800E050E119FC50E450E550E650E718FC7047
:10F14800E170E0D62725D62BA92C313C9CD631D6A8
:10F158006C007C0050E450E558E68D296D08402E7F
:10F168009474704F2E776E02887AE6A02A7C50AA93
:10F17800AA7EFFFF7F7F0000808100000081D62BE0
:10F18800B56C297C6570E770E670E370E2D62BF009
:10F19800D6296D50E250E3D62BB5C202A0E2D62B99
:10F1A800D88B0650E050E119FC50E450E550E65089
:10F1B800E700E0EB01AF70E770E670E570E418FC7B
:10F1C80070E170E070E370E2D6296D50E250E3D64A
:10F1D8002BF470E370E2D6272850E250E38D31E239
:10F1E800D62B632C803C655D32C12C803C87D62BA6
:10F1F800D82C803C65EB01AFC282020856E0074C70
:10F2080000D202A0E20200020058E002351224D621
:10F218002BF488E448E558E888E668E778E8D629D2
:10F228006D8C809C64C2080E56E0034C00A6E00179
:10F2380012048C809C64D2082C323CCA0200020062
:10F2480058E002351224D62712D62BF008E778E5C5
:10F25800B6E04F58E01C80D21280E2C2421C80D235
:10F26800122C803C63C2828ED282C20226E0ABEDB1
:10F2780032B7D2025E00E67ED627D02C803C878D3E
:10F288002C0DD20280E2D20280E2D2028D3288684E
:10F29800B1466899E9926910D175682C333C46D615
:10F2A8002712D62BB54C835C496C0F7CDBD62BDB45
:10F2B80050E450E550E650E7D62A2DD62BB5D62C8B
:10F2C800F950E450E550E650E7D627252C333C4A60
:10F2D800D62718D62B63DFDD3322D6270ED62B632D
:10F2E8004200CF18FC70E170E05B03D62BA92C33E9
:10F2F8003C4AD6271250E050E119FC7B03D62BA9D3
:10F308002C333C4E8D31BDDB0F49810000007F0559
:10F31800BAD71E866426998758342387E05DA58668
:10F32800DA0F4983D62BB5D632E150E450E550E2E6
:10F3380050E3D62BB588E698E768E278E328E83802
:10F34800E9D62BDBD632DA8D2A25D62B63DB03D61A
:10F358002BA9DB03D62BA98C819C34C208A6E0819B
:10F368007D33B54C815C0068E578E5D62A2D2C27DD
:10F378003C1870E370E22C333CC1D631BD2C333CD1
:10F3880046AF094AD73B78026E847BFEC12F7C7456
:10F39800319A7D843D5A7DC87F917EE4BB4C7E6C5A
:10F3A800AAAA7F00000081AFD6001FAF0C0C8D36D3
:10F3B8000AD626D808E78C809C8FD208AFD6166A62
:10F3C800D60F448C809C93D26818FCA0E819FCD214
:10F3D800788C809C95D26818FCA0E819FCD278AF8C
:10F3E800D60F4470E770E650E250E3C24218FCA022
:10F3F800E219FCC2028D1EA0D6166AD60F4470E729
:10F4080070E6D60A362CD6166AD60F4450E850E96C
:10F4180070E370E228E838E9D27218FCA0E219FC1F
:10F42800D26250E250E3AFD6166DD60F4470E57045
:10F43800E42C813C3608E6A6E0006B12D634BB0803
:10F44800E4A6E0306B04D242A0E2D252A0E208E780
:10F45800D634BB08E6A6E000EB0708E4A6E0306B6C
:10F4680004D242A0E2D252A0E2B200D202A0E2D27A
:10F478000250E450E52C813C368D201248E056E0DD
:10F488000FA6E00A7B0306E00706E03058E008E430
:10F49800E0E0E0E0E0E0E0E056E00FA6E00A7B0311
:10F4A80006E00706E03048E0AF88E698E768E278CB
:10F4B800E328E838E92C003C00D6351C7D355B8B09
:10F4C80005D6351C7B3A023312220233122202334C
:10F4D8001222023312224203CF38E08BE4A0E6C2A4
:10F4E80006A6E0206D351C26E030FB01AFA6E00A39
:10F4F8007B0926E007A6E00AFB01AFA6E010EFAF04
:10F5080088E698E768E278E328E838E908E658E703
:10F5180070E370E2D61E9E50E250E3AF7C268D0564
:10F5280006D6166DD60F4470E570E42C813C364C37
:10F538001100E408E4A6E0016B0810E710E6FBF10F
:10F548008B0410E710E60C3016E000D202A0E200AF
:10F55800E4EBEFB200CFD202A0E2D20250E450E5D1
:10F568002C813C368D201288E698E768E278E328FB
:10F57800E838E92C003C00D635E97D360226E03033
:10F58800023312224203CF38E0D635E9FBEF88E692
:10F5980098E768E278E328E838E908E658E770E38E
:10F5A80070E2D61E9E50E250E3AF18FCA0E619FCAC
:10F5B800C206A6E0206D35E9A6E030FB01AFA6E063
:10F5C80032EFAF7C288D05068D00598D00398D00EE
:10F5D800000C008C809C9AD2088D0064D60A5C8D41
:10F5E80013080000000000000000000000000000F8
:10F5F8000000000000000000000000000000000003
:10F6080000000000000000000000000000000000F2
:10F6180000000000000000000000000000000000E2
:10F6280000000000000000000000000000000000D2
:10FFC800000D0A4D455A5A382025322E33664D48C1
:10FFD8007A0D0A0052253034582C253032580D0A33
:10FFE8000057253034582C253032580D0A00696ED8
:07FFF80066006E616E00005F
:020000040001F9
:10000000000E816F57C582F558C583F559C584F533
:100010005AC585F585AF14D0010E816F82C501F5F3
:1000200083C502F584C503F585C504F5EBEC90F0B6
:1000300001C582F502C583F503C584F504C585F5C0
:10004000000E876F000E866FBAC571F5BBC572F5DD
:100050008151D8B40DD08151D8A404D0000E676F5F
:100060002B0E03D0000E676F2D0E666F66C581F5EF
:1000700082C501F583C502F584C503F585C504F580
:1000800017EC8EF001040210D8A42CD00501815188
:10009000D8B409D081C500F67107D8A07207000E48
:1000A000876F010E866F000E8625016E060E872172
:1000B000026EF60E036EFF0E046ED2EC90F0FD0E93
:1000C0007127FF0E722355C512F556C513F5000EA4
:1000D000146E060E156E71C516F572C517F5CBECCC
:1000E0008FF0120082C501F583C502F584C503F5C2
:1000F00085C504F517EC8EF001500210D8A41AD073
:1001000005018151D8B409D081C500F67107D8A086
:100110007207000E876F010E866F000E8625016E36
:10012000060E8721026EFA0E036EFF0E046ED2ECED
:1001300090F0C5D7000E0501886F000E896F800E04
:100140008A6F3F0E8B6F000E706F000E6F6F82C54F
:1001500001F583C502F584C503F585C504F5000ED8
:10016000056E000E066E000E076E000E086E86EC21
:100170008FF0D8A00CD0BED073C588F574C589F5B2
:1001800075C58AF576C58BF505016F4B702B88C553
:100190000FF589C510F58AC511F58BC512F5000E4E
:1001A000136E000E146E200E156E410E166E68EC66
:1001B00084F00FC573F510C574F511C575F512C53A
:1001C00076F505017351825D016E74518359026E9B
:1001D00075518459036E76518559046E2CEC90F05C
:1001E00004BECAD704500310021004E1020E015CE1
:1001F000D8A0C2D773C528F574C529F575C52AF5E9
:1002000076C52BF582C52CF583C52DF584C52EF555
:1002100085C52FF5AFEC8DF0D8A0AED7050188517C
:10022000825D016E89518359026E8A518459036E31
:100230008B518559046E2CEC90F004BE08D004500C
:100240000310021043E1020E015CD8B03FD088C514
:1002500082F589C583F58AC584F58BC585F54AD0B5
:1002600088C528F589C529F58AC52AF58BC52BF5DA
:10027000000E2C6E000E2D6E200E2E6E410E2F6E77
:1002800086EC8AF028C588F529C589F52AC58AF53E
:100290002BC58BF505016F07D8A070078851825DCB
:1002A000016E89518359026E8A518459036E8B51B4
:1002B0008559046E2CEC90F004BEC9D7045003108D
:1002C000021004E1020E015CD8A0C1D782C528F556
:1002D00083C529F584C52AF585C52BF588C52CF578
:1002E00089C52DF58AC52EF58BC52FF5AFEC8DF0A0
:1002F000D8A0B6D75BC569F569C56AF50501BDBF6C
:1003000005D0BCC562F5BDC563F504D0000E636FB2
:10031000060E626F62C56DF563C56EF56D4B6E2B93
:10032000660E6A19D8A416D070AF0CD0000E886F74
:10033000000E896F800E8A6F3F0E8B6F000E706FFC
:10034000000E6F6F670E6919D8B404D06F516D2716
:1003500070516E23000E806F000E7F6F82C577F59F
:1003600083C578F584C579F585C57AF588C573F5B3
:1003700089C574F58AC575F58BC576F57BD077C5CB
:1003800028F578C529F579C52AF57AC52BF588C5EC
:100390002CF589C52DF58AC52EF58BC52FF586EC74
:1003A0008AF028C541F529C542F52AC543F52BC574
:1003B00044F5CAEC8BF041C57BF542C57CF543C5DD
:1003C0007DF544C57EF57BC501F57CC502F57DC58F
:1003D00003F57EC504F57DEC8EF001C56BF502C515
:1003E0006CF577C528F578C529F579C52AF57AC55C
:1003F0002BF57BC513F57CC514F57DC515F57EC5BC
:1004000016F588C50FF589C510F58AC511F58BC598
:1004100012F568EC84F00FC52CF510C52DF511C54B
:100420002EF512C52FF551EC90F028C577F529C5AA
:1004300078F52AC579F52BC57AF588C528F589C5DB
:1004400029F58AC52AF58BC52BF5000E2C6E000EFA
:100450002D6E200E2E6E410E2F6E86EC8AF028C572
:1004600088F529C589F52AC58AF52BC58BF50501BF
:100470007F4B802B6D517F5D8051800A5C6E6E5189
:10048000800A5C58D8A07BD788C50FF589C510F5C0
:100490008AC511F58BC512F5000E136E000E146E91
:1004A000A00E156E400E166E68EC84F00FC57BF53D
:1004B00010C57CF511C57DF512C57EF577C528F50B
:1004C00078C529F579C52AF57AC52BF57BC52CF5B4
:1004D0007CC52DF57DC52EF57EC52FF5AFEC8DF0D5
:1004E000D8B003D0000E050118D077C501F578C546
:1004F00002F579C503F57AC504F57BC505F57CC51C
:1005000006F57DC507F57EC508F586EC8FF0D8A009
:100510000BD005016BB108D0000E7B6F000E7C6F15
:10052000000E7D6F000E7E6F82C501F583C502F55A
:1005300084C503F585C504F57BC505F57CC506F5C1
:100540007DC507F57EC508F588EC87F001C577F510
:1005500002C578F503C579F504C57AF577C528F5A0
:1005600078C529F579C52AF57AC52BF5000E136EE5
:10057000000E146E200E156E410E166E73C50FF52B
:1005800074C510F575C511F576C512F568EC84F0E3
:100590000FC52CF510C52DF511C52EF512C52FF57B
:1005A000AFEC8DF0D8A024D005016F4B702B73C534
:1005B0000FF574C510F575C511F576C512F5000E69
:1005C000136E000E146E200E156E410E166E68EC42
:1005D00084F00FC573F510C574F511C575F512C516
:1005E00076F5660E05016A19D8A402D06D4B6E2B04
:1005F00073C588F574C589F575C58AF576C58BF51B
:100600006FC560F570C561F5000E0501686F000EDD
:10061000656F000E646F000E806F000E7F6FCDD08F
:1006200077C528F578C529F579C52AF57AC52BF55A
:1006300088C52CF589C52DF58AC52EF58BC52FF5F6
:1006400086EC8AF028C541F529C542F52AC543F54F
:100650002BC544F5CAEC8BF041C57BF542C57CF552
:1006600043C57DF544C57EF57BC501F57CC502F526
:100670007DC503F57EC504F57DEC8EF002BE06D087
:10068000025013E10A0E015CD8B00FD07BC501F512
:100690007CC502F57DC503F57EC504F57DEC8EF0C5
:1006A00001C56BF502C56CF505D0000E05016C6F38
:1006B000090E6B6F05016851D8B461AF20D0000EF0
:1006C0008625D96E060E8721DA6E2E0EDF6E864BDA
:1006D000872B7107D8A07207010E686F10D0000E2B
:1006E0008625D96E060E8721DA6E300EDF6E864BB8
:1006F000872B7107D8A072076407D8A065076451DB
:100700006511D8A4ECD7000E8625D96E060E872178
:10071000DA6E6B51300FDF6E864B872B7107D8A0D6
:10072000720777C528F578C529F579C52AF57AC500
:100730002BF57BC513F57CC514F57DC515F57EC578
:1007400016F588C50FF589C510F58AC511F58BC555
:1007500012F568EC84F00FC52CF510C52DF511C508
:100760002EF512C52FF551EC90F028C577F529C567
:1007700078F52AC579F52BC57AF588C528F589C598
:1007800029F58AC52AF58BC52BF5000E2C6E000EB7
:100790002D6E200E2E6E410E2F6E86EC8AF028C52F
:1007A00088F529C589F52AC58AF52BC58BF505017C
:1007B0006007D8A061077F4B802B6D517F5D805112
:1007C000800A5C6E6E51800A5C58D8B008D087BF32
:1007D00027D7875104E14B0E865DD8A021D7000EA4
:1007E000806F4F0E7F6F000E7F25D96E060E802121
:1007F000DA6EDF6A000E5C6E060E5D6E86515C5E20
:1008000087515D5A7F515C24016E80515D20026EDC
:10081000000E036E060E046E86C505F587C506F547
:1008200074EC90F086517F5D866F87518059876F99
:100830008151D8B402D0010E01D0000E7F6F806BC1
:10084000C0B30FD022D08607D8A08707000E862518
:10085000D96E060E8721DA6E300EDF6E7107D8A0D2
:10086000720771517F5D8051800A5C6E7251800AFF
:100870005C58D8B00AD086517F5D8051800A5C6E8A
:100880008751800A5C58D8A0DED78151D8B40BD0EC
:100890008607D8A08707000E8625D96E060E872109
:1008A000DA6E81C5DFF47F51715F8051725B55C58F
:1008B00012F556C513F5000E8625146E060E872117
:1008C000156E71C516F572C517F5CBEC8FF01200D9
:1008D0001250800B1B6E12501224216E11BE21800B
:1008E0002150D8B40DD02128D8A408D0000E0F6E06
:1008F000000E106E000E116E000E126E118E08D0DA
:10090000000E0F6E000E106E000E116E000E126EB5
:100910001650800B1B1A165016241C6E15BE1C8018
:100920001C50D8B40DD01C28D8A408D0000E136ECB
:10093000000E146E000E156E000E166E158E08D089
:10094000000E136E000E146E000E156E000E166E65
:100950001C50D8B403D02150D8A409D0000E0F6E7B
:10096000000E106E000E116E000E126E1200155069
:100970000F02F3C426F5F4C427F526501D6E1E6A37
:100980001F6A206A2750226E236A246A256A14503F
:100990001002F3C426F5F4C427F526501D26000ED8
:1009A0001E221F22202227502226000E232224222C
:1009B000252213501102F3C426F5F4C427F526505E
:1009C0001D26000E1E221F22202227502226000E46
:1009D0002322242225221FC520F51EC51FF51DC573
:1009E0001EF51D6A13501002F3C426F5F4C427F552
:1009F00026501D2627501E22000E1F22000E2022E8
:100A000014500F02F3C426F5F4C427F526501D2612
:100A100027501E22000E1F22000E20221FC520F587
:100A20001EC51FF51DC51EF51D6A13500F02F3C428
:100A300026F5F4C427F526501D2627501E22000E49
:100A40001F22000E202215501002F3C426F5F4C414
:100A500027F52650222627502322000E2422000E9E
:100A6000252214501102F3C426F5F4C427F52650AC
:100A7000222627502322000E2422000E2522155064
:100A80001102F3C426F5F4C427F52650176E27503B
:100A9000186E196A1A6A19C51AF518C519F517C515
:100AA00018F5176A175022261850232219502422AD
:100AB0001A50252220502226000E232224222522ED
:100AC0001FC520F51EC51FF51DC51EF51D6A1C504E
:100AD00021C517F5186A1726000E1822820E172452
:100AE000266EFF0E1820276E0FD0D89022362336A0
:100AF0002436253620BE2280D8901D361E361F365D
:100B000020362606D8A0270624AEEFD7000E1C6E8E
:100B100020AE17D0FF0E1D14176EFF0E1E14186E98
:100B2000FF0E1F14196E7F0E20141A6E1750181026
:100B300019101A10D8B403D0010E1C6E02D022B0C6
:100B4000FBD71C50D8B41FD0010E2226000E232242
:100B50002422252225A017D022C517F523C518F574
:100B600024C519F525C51AF51A341A321932183266
:100B7000173217C522F518C523F519C524F51AC56E
:100B800025F5264A272A27BE0DD0275003E126281F
:100B9000D8A008D0000E226E000E236E800E246EA8
:100BA0007F0E20D027BE05D027500EE12604D8B0F6
:100BB0000BD0000E226E000E236E000E246E000E6F
:100BC000256E000E1B6E0FD026C521F5FF0E2216D6
:100BD000FF0E23167F0E2416000E251621B0248E3C
:100BE000D8902130256E1B50251222C50FF523C544
:100BF00010F524C511F525C512F512008EC5D9F4DE
:100C00008FC5DAF4DEC4F6F4DDC4F7F4000EF86E36
:100C10000800F550250AD8A466D18EC5D9F48FC531
:100C2000DAF4DE2A000EDD22000EBB6F000EBA6F72
:100C3000BAC5C0F5BC69BD69000E0AD0C0838EC5B7
:100C4000D9F48FC5DAF4DE2A000EDD221AD0010EA7
:100C5000926F17D08EC5D9F48FC5DAF4DEC4F6F4DE
:100C6000DDC4F7F4000EF86E0800F5505E6E5F6AA2
:100C70005F50000AD8A4EBD75E50300AD8B4DED754
:100C8000E6D79251D8B4E6D78EC507F58FC508F5DB
:100C900090C509F591C50AF5DAEC8EF007C5BAF5ED
:100CA00008C5BBF50501BBAF05D0C081BA6DBB1F40
:100CB000D8B0BB2B8EC5D9F48FC5DAF4DEC4F6F4F8
:100CC000DDC4F7F4000EF86E0800F5502E0AD8A423
:100CD00015D08EC5D9F48FC5DAF4DE2A000EDD22D8
:100CE0008EC507F58FC508F590C509F591C50AF5BC
:100CF000DAEC8EF007C5BCF508C5BDF58EC5D9F494
:100D00008FC5DAF4DEC498F5DDC499F598C5F6F41C
:100D100099C5F7F4000EF86E0800F550580AD8A4EB
:100D200041D090C5D9F491C5DAF4DFC45EF5020E66
:100D3000DE26DFC45FF5000EDD225EC5D9F45FC597
:100D4000DAF4DEC493F5DDC494F5010E05019825AF
:100D50005E6E000E99215F6E8EC5D9F48FC5DAF4F0
:100D60005EC5DEF45FC5DDF40BD08CC51BF58DC50B
:100D70001CF593C51DF594C51EF53EEC8DF01200D3
:100D800098C5F6F499C5F7F4000EF86E0800F55012
:100D90005E6E5F6A5F50000AD8A404D05E50580AA5
:100DA000D8B4E3D78EC5D9F48FC5DAF4DEC498F58C
:100DB000DDC499F598C5F6F499C5F7F4000EF86E00
:100DC0000800F5C497F508D0984B992B18D06C0EF5
:100DD00001D0000E976F13D0050197515E6E5F6AC8
:100DE0005F50000AD8A4F5D75E504C0AD8B4ECD7AF
:100DF0002A0AD8B4ECD70A0AD8B4E6D7EAD798C5F5
:100E0000F6F499C5F7F4000EF86E0800F550660A7E
:100E1000D8B41AD060D090C5D9F491C5DAF4DFC443
:100E20005EF5040EDE26DFC45FF5000EDD225EC532
:100E3000D9F45FC5DAF4DEC493F5DEC494F5DEC4FC
:100E400095F5DEC496F50ED097515E6E5F6A5F50E1
:100E5000000AD8A407D05E504C0AD8B4DCD7200AC8
:100E6000D8B4D9D7010E98255E6E000E99215F6E19
:100E70008EC5D9F48FC5DAF45EC5DEF45FC5DDF446
:100E800018D08CC555F58DC556F593C557F594C545
:100E900058F595C559F596C55AF598C5F6F499C50E
:100EA000F7F4000EF86E0800F5C45BF500EC80F076
:100EB000120098C5F6F499C5F7F4000EF86E080014
:100EC000F5505E6E5F6A5F50000AD8A404D05E5091
:100ED000660AD8B4D6D78EC5D9F48FC5DAF4DE2A1F
:100EE000000EDD2212008EC5D9F48FC5DAF4DEC4FF
:100EF000F6F4DDC4F7F4000EF86E0800F550026E4B
:100F0000036A8CC504F58DC505F536EC8FF0E3D783
:100F10000450800B0D6E045004240F6E03BE0F802E
:100F20000F50D8B40DD00F28D8A408D0000E016EF1
:100F3000000E026E000E036E000E046E038E06D0CD
:100F4000000E016E000E026E000E036E000E046EA7
:100F50000850800B0E6E0D500E18D8A40D8C085042
:100F600008240E6E07BE0E800E50D8B40DD00E2889
:100F7000D8A408D0000E056E000E066E000E076E97
:100F8000000E086E078E06D0000E056E000E066E6F
:100F9000000E076E000E086E0F500E5CD8B022D007
:100FA0000DAC02D0800E0D1A0FC510F50EC50FF551
:100FB00010C50EF501C510F505C501F510C505F5FF
:100FC00002C510F506C502F510C506F503C510F5F6
:100FD00007C503F510C507F504C510F508C504F5E8
:100FE00010C508F5000E106E0F500EC509F50A6AFF
:100FF000095E000E0A5A0ABE2CD00A5004E11A0EED
:10100000095CD8A026D00150021003100410D8B4F7
:1010100002D0010E01D0000E106E000E016E000E07
:10102000026E000E036E000E046E0EC50FF515D095
:1010300010A005D0D89010300109106E02D0D890C1
:10104000103201B0108E0434043203320232013205
:101050000F2A0E500F5CD8A0EBD70DBC28D00F5034
:10106000D8A409D0000E016E000E026E000E036EB1
:10107000000E046E12000550012606500222075091
:1010800003220850042204A071D010A005D0D890EB
:1010900010300109106E02D0D890103201B0108EBD
:1010A000043404320332023201320F2A5FD0055079
:1010B000015C06500258075003580450800A096E1C
:1010C0000850800A0958D8B025D00150055C096E37
:1010D000025006580A6E035007580B6E0450085809
:1010E0000C6EFF0E0924016EFF0E0A20026EFF0E29
:1010F0000B20036EFF0E0C20046E800E0D1A106C78
:101100001050D8A40FD0010E0126000E0222032297
:10111000042208D00550015E0650025A0750035AB7
:101120000850045A0150021003100410D8A41CD017
:101130001050D8A419D0000E016E000E026E000EE1
:10114000036E000E046E1200D8900136023603368C
:10115000043610BE018010A002D0D88001D0D890F3
:1011600010360F50D8A40F0603AEEED7000E0E6E49
:1011700010AE0BD010C509F57F0E0916D8B403D0F8
:10118000010E0E6E02D001B0FBD70E50D8B420D0A5
:10119000010E0126000E02220322042204A018D010
:1011A00001C509F502C50AF503C50BF504C50CF523
:1011B0000C340C320B320A32093209C501F50AC56A
:1011C00002F50BC503F50CC504F50F28D8A40F2AAA
:1011D0000F28D8B403D00F50D8A40DD0000E016E44
:1011E000000E026E000E036E000E046E0F50D8A4A7
:1011F00002D0000E0D6E0FA002D0038E01D0039E10
:10120000D8900F30046E0DBE048E01C501F502C5E5
:1012100002F503C503F504C504F51200080E00012C
:10122000B16F000E0401186F1969C968000E086FCC
:101230000969C768000E106F1169C8683F0E020186
:10124000046F04010097C696660E436FE60E446F66
:10125000000E456F000E476F4691468B468F0095F6
:101260000185C68400910181C68000930183C682F6
:101270002095C294CA94009BBE9AC69A2091C290AF
:10128000CA902093C292CA92010E0201D56FA00E9D
:10129000D46FD189D18B0401009FC68E070E020145
:1012A000766F0401009DBE8CC69C260E0201076F5E
:1012B000D28F000E136E240E146EF40E156E410EB6
:1012C000166E04014351016E4451026E4551036E86
:1012D000046A000E9EEC8CF001C50FF502C510F5F6
:1012E00003C511F504C512F568EC84F00FC528F5A7
:1012F00010C529F511C52AF512C52BF5000E2C6E67
:10130000240E2D6E740E2E6E490E2F6E86EC8AF012
:1013100028C5ACF529C5ADF52AC5AEF52BC5AFF589
:10132000C90E0501A26FFF0EA36FACC5A4F5ADC534
:10133000A5F5AEC5A6F5AFC5A7F502EC91F0020E76
:101340000201616F000E626F000E0001D56F000E8A
:10135000D86F7F0ED96F7F0EDA6F7F0EDB6F020EB4
:10136000DC6F040EDD6F100EDE6F400EDF6F000EBF
:10137000D76F8A0ED66F000E0501B16F000EB06FE9
:10138000500EB025D96E060EB121DA6EDF6AB04B71
:10139000B12BB1BFF5D7100EB15DD8A0F1D7550E66
:1013A0000401596FAA0E596F5991080E5D6F000E16
:1013B0005E6F000E5F6F550E596FAA0E596F5981FF
:1013C000AE9A9E8A090E0501AB6F1E0EAA6FE40E3F
:1013D000E82EFED7AA2FFCD7AB2FFAD70000D68E67
:1013E000C284000E0501B16F000EB06FCEB0FED703
:1013F000D1C4BFF5CEB229D00501BF51F00B800A90
:10140000D8A409D0500EBE25D96E860EBF21DA6E43
:10141000CFC4DFF406D0E00EBF19BE11D8B4CFC4DC
:10142000C9F2B005B111D8A40DD0E90EA26FFF0E1C
:10143000A36FBEC5A4F5BFC5A5F5CFC4A6F5A76B20
:1014400002EC91F0CEB0D2D7FDD7000EC76E0501E9
:10145000BFBF06D0C90EBE25F66EBF0EBF211BD082
:10146000BF51F00B800AD8A408D0500EBE25D96E0B
:10147000860EBF21DA6EDF5028D0BF29D8A013D046
:10148000000EBE25AA6F010EBF21AB6FC90EAA25A3
:10149000F66EBF0EAB21F76EF86A000EF822080058
:1014A000F5C4BFF413D0BE0507E1E00EBF19D8A400
:1014B00003D0B7C4BFF40AD0E00EBF19BE11D8A440
:1014C00003D0C7C2BFF402D0000EBF6EB005B11189
:1014D000D8A418D0BF5104E14C0EBE5DD8A012D0E4
:1014E000BE05900EBF59D8B00DD0DC0EA26FFF0E16
:1014F000A36FBEC5A4F5BFC5A5F5CFC4A6F5A76B60
:1015000002EC91F0CEA0FED7C76870D72B50800BAD
:10151000386E2B502B243F6E2ABE3F803F50D8B4EC
:101520000DD03F28D8A408D0000E286E000E296EDA
:10153000000E2A6E000E2B6E2A8E06D0000E286E2C
:10154000000E296E000E2A6E000E2B6E2F50800B9F
:10155000381A2F502F24406E2EBE40804050D8B4F1
:101560000DD04028D8A408D0000E2C6E000E2D6E91
:10157000000E2E6E000E2F6E2E8E06D0000E2C6EDC
:10158000000E2D6E000E2E6E000E2F6E2C502D10A4
:101590002E102F10D8A417D0000E286E000E296E22
:1015A000000E2A6E000E2B6E800E2A127F0E2B125A
:1015B00038502B1228C528F529C529F52AC52AF542
:1015C0002BC52BF512003F50D8A409D0000E286E71
:1015D000000E296E000E2A6E000E2B6E1200405077
:1015E0003FC530F5316A305E000E315A7F0E30242F
:1015F000396E000E31203A6E28C534F529C535F50F
:101600002AC536F52BC537F5000E286E000E296E5B
:10161000000E2A6E000E2B6E000E3B6E000E3C6E0E
:10162000000E3D6E000E3E6E000E406E28D0405003
:10163000D8B411D0D8903436353636363736D890BF
:10164000283629362A362B363EBE2880D8903B369F
:101650003C363D363E362C50345C2D5035582E509D
:1016600036582F503758D8A009D03E8C2C50345EB5
:101670002D50355A2E50365A2F50375A402A190EAF
:101680004064D5D73450351036103710D8B411D047
:101690003B800FD0D890283629362A362B363EBECE
:1016A0002880D8903B363C363D363E363906D8A0A9
:1016B0003A062AAEEFD7000E406E3EAE17D0FF0EB0
:1016C0003B14306EFF0E3C14316EFF0E3D14326E33
:1016D0007F0E3E14336E3050311032103310D8B4B8
:1016E00003D0010E406E02D028B0FBD74050D8B4D2
:1016F0001FD0010E2826000E29222A222B222BA0E1
:1017000017D028C530F529C531F52AC532F52BC5C6
:1017100033F53334333232323132303230C528F59A
:1017200031C529F532C52AF533C52BF5394A3A2A90
:101730003ABE10D03A5003E13928D8A00BD0000EA1
:101740003A6E3968000E286E000E296E000E2A6E61
:10175000000E2B6E3ABE05D03A5011E13904D8B0D4
:101760000ED0000E3A6E000E396E000E286E000E7E
:10177000296E000E2A6E000E2B6E000E386E39C5D3
:101780003FF53FA002D02A8E01D02A9ED8903F304C
:101790002B6E0ED7B2C551F5B3C552F5B4C553F58E
:1017A000B5C554F541C551F542C552F543C553F58C
:1017B00044C554F5810E456EFF0E466E51C547F582
:1017C00052C548F553C549F554C54AF5180E05D01C
:1017D000D8904A32493248324732E82EF9D747503A
:1017E00045244F6E000E4620506E50BE0FD0505014
:1017F00004E1170E4F5CD8A009D041C541F542C5A0
:1018000042F543C543F544C544F5120050BE5BD0D4
:101810004FC545F5FF0E466EFF0E476E7F0E486EB4
:10182000000E496E456601D007D04934493248322E
:1018300047324632452EF6D746C54BF547C54CF5DF
:1018400048C54DF549C54EF54B505114456E4C50A9
:101850005214466E4D505314476E4E505414486EF9
:101860004550461047104810D8B4C7D751C545F564
:1018700052C546F553C547F554C548F5200E05D069
:10188000D8904832473246324532E82EF9D7455093
:10189000D8B408D04B5051264C5052224D505322B0
:1018A0004E5054224B1C456E4C1C466E4D1C476ED0
:1018B0004E1C486E4550511646505216475053160E
:1018C0004850541632D051C545F552C546F553C55A
:1018D00047F554C548F5200E05D0D8904832473218
:1018E00046324532E82EF9D7456608D0000E516ED3
:1018F000000E526E000E536E000E16D0D89051346A
:10190000456E5234466E5334476E5434486E4550DB
:10191000461047104810D8B408D0000E516E000E83
:10192000526E800E536EBF0E546E51C541F552C5B6
:1019300042F553C543F554C544F51200096E0950EC
:10194000D8A404AE1AD001C505F502C506F503C535
:1019500007F504C508F5051E061E071E081E052A04
:10196000000E06220722082205C50BF506C50CF558
:1019700007C50DF508C50EF508D001C50BF502C564
:101980000CF503C50DF504C50EF50150021003104A
:101990000410D8A409D0000E016E000E026E000ED5
:1019A000036E000E046E1200960E0A6E06D00A2A0E
:1019B000D8900E320D320C320B32000E0B14056E25
:1019C000000E0C14066E000E0D14076EFE0E0E14A3
:1019D000086E0550061007100810D8B40DD0E7D7D0
:1019E0000A2A010E0B26000E0C220D220E22D89080
:1019F0000E320D320C320B32000E0B14056E000E3F
:101A00000C14066E000E0D14076EFF0E0E14086EF9
:101A10000550061007100810D8B407D0E1D70A0601
:101A2000D8900B360C360D360E360DBE03D0020E96
:101A30000A60F5D70AA00D9ED8900A320AC505F5AE
:101A4000066A076A086A05C508F5076A066A056A2C
:101A500005500B1206500C1207500D1208500E12B2
:101A60000950D8A404AE01D00E8E0BC501F50CC5EB
:101A700002F50DC503F50EC504F51200BDAFC09308
:101A8000BDAF05D0000E236E010E226E04D0BCC582
:101A900022F5BDC523F5BAC524F5BBC525F5000E55
:101AA000286E4F0E276E000E06014F6F2AD02706B4
:101AB000D8A028061D500F0B266E0A0E266002D0F5
:101AC000300E01D0370E2626000E2724D96E060EC2
:101AD0002820DA6E26C5DFF42206D8A023062406C5
:101AE000D8A025061DC51FF51EC520F5040E216EC4
:101AF000D89020321F32212EFBD71FC51DF520C5DF
:101B00001EF528BE1BD0285004E1020E275CD8A089
:101B100015D01D501E10D8A4CAD723BE05D02350FF
:101B2000C6E12204D8B0C3D725BE08D0255003E1B2
:101B30002404D8A003D00501C0B3B9D71BC512F542
:101B40001CC513F5000E2724146E060E2820156EF2
:101B500024C516F525C517F5CBEC8FF01200000E45
:101B60002814306E000E2914316E800E2A14326E45
:101B70007F0E2B14336E3050311032103310D8A436
:101B800008D0000E286E000E296E000E2A6E000E80
:101B90002B6E000E2C14306E000E2D14316E800E44
:101BA0002E14326E7F0E2F14336E305031103210DF
:101BB0003310D8A408D0000E2C6E000E2D6E000E2F
:101BC0002E6E000E2F6E2BAE09D0286C291ED8B0B9
:101BD000292A2A1ED8B02A2A800E2B562FAE09D0C9
:101BE0002C6C2D1ED8B02D2A2E1ED8B02E2A800E79
:101BF0002F56000E281A000E291A000E2A1A800EDF
:101C00002B1A000E2C1A000E2D1A000E2E1A800E02
:101C10002F1A2C50285C2D5029582E502A582F50FE
:101C20002B58D8B002D0D8901200D8801200B6C578
:101C30000BF5B7C50CF5B8C50DF5B9C50EF501C561
:101C40000BF502C50CF503C50DF504C50EF50BC566
:101C500005F50CC506F50DC507F50EC508F5180EFA
:101C600005D0D8900832073206320532E82EF9D76F
:101C70000550096E0A6A09500A10D8A419D0D890E4
:101C80000B34056E0C34066E0D34076E0E34086E80
:101C90000550061007100810D8A405D0000E026EDB
:101CA000020E016E1200000E026E030E016E120093
:101CB00009280A10D8A41CD00BC505F50CC506F5DB
:101CC0000DC507F50EC508F5090ED8900536063680
:101CD00007360836E82EF9D7055006100710081009
:101CE000D8A402D0010E01D0000E016E026A1200CB
:101CF000000E026E040E016E1200033404340A6EEC
:101D00000A50D8A409D0000E016E000E026E000E1B
:101D1000036E000E046E120001C505F502C506F53E
:101D200003C507F504C508F5200E05D0D890083284
:101D3000073206320532E82EF9D70550096E038EB8
:101D4000FF0E0116FF0E0216FF0E0316000E0416FC
:101D5000960E0A5E0AAE0DD00A50800A970FD8A0E0
:101D6000D2D7D89004320332023201320A3EF9D778
:101D70000DD01F0E0A6407D0C6D7D89001360236A0
:101D8000033604360A060A50D8A4F7D70950D8B447
:101D900008D0041E031E021E016C000E0222032244
:101DA000042201C501F502C502F503C503F504C50A
:101DB00004F51200000E0F6E000E0E6E07C5D9F46A
:101DC00008C5DAF4DEC4F6F4DDC4F7F4000EF86EEC
:101DD0000800F5502A0AD8A433D007C5D9F408C59D
:101DE000DAF4DE2A000EDD2209C5D9F40AC5DAF4D8
:101DF000DFC40BF5020EDE26DFC40CF5000EDD227B
:101E00000BC5D9F40CC5DAF4DEC40EF5DDC40FF54C
:101E100028D00EC501F50FC502F5000E046E0A0E9E
:101E2000036E15EC91F00D5001240E6E000E022091
:101E30000F6E07C5D9F408C5DAF4DE2A000EDD22DC
:101E400007C5D9F408C5DAF4DEC4F6F4DDC4F7F446
:101E5000000EF86E0800F550D00F0D6E090E0D64DF
:101E6000D8D70EC507F50FC508F5120004500510A8
:101E7000D8B404D004500510D8A404D0025028ECE3
:101E800091F0120020EE0AF00450D9260550DA2213
:101E9000DE50DE10D8B416D020EE0AF00450D92659
:101EA0000550DA2210EE03F00450E1260550E2223C
:101EB000DE50E65CE650800A0A6EDE50800A0A5860
:101EC000D8B0120020EE03F00450D9260550DA22D3
:101ED000DEC406F5DDC407F504C5D9F405C5DAF49A
:101EE000DEC408F5DDC409F506500824D96E075094
:101EF0000920DA6E02C5DFF420EE03F00450D92683
:101F00000550DA22DE2A000EDD221200000E011436
:101F1000096E000E02140A6E800E03140B6E7F0E03
:101F200004140C6E09500A100B100C10D8A408D021
:101F3000000E016E000E026E000E036E000E046EA7
:101F4000000E0514096E000E06140A6E800E0714AA
:101F50000B6E7F0E08140C6E09500A100B100C103B
:101F6000D8A408D0000E056E000E066E000E076E97
:101F7000000E086E055001180AE10650021807E12C
:101F80000750031804E108500418D8B402D0D890C0
:101F90001200D88012000501C0A10AD014C50BF5AB
:101FA00015C50CF512C50DF513C50EF5B6EC90F080
:101FB00017AE04D0000E176E000E166E000E1A6ECD
:101FC000000E196E0CD0000E036E200E026E12C5AC
:101FD00004F513C505F536EC8FF0194A1A2A165088
:101FE000195C1A50800A186E1750800A1858D8A029
:101FF000EAD70501C0B1120014C50BF515C50CF5E3
:1020000012C50DF513C50EF5B6EC90F012009CC587
:10201000A0F59DC5A1F50FD09AC58CF59BC58DF592
:10202000A00E05018E6F050E8F6F9EC590F59FC5A2
:1020300091F5FEEC85F0A0C5F6F4A1C5F7F4000E0D
:10204000F86E0800F5500009D8A4E6D7000E050187
:102050009B6F000E9A6F120004BE09D001C501F5F6
:1020600002C502F503C503F504C504F5120001C558
:1020700005F502C506F503C507F504C508F5051EF7
:10208000061E071E081E052A000E06220722082229
:1020900005C501F506C502F507C503F508C504F534
:1020A0001200000E2C1A000E2D1A000E2E1A800E91
:1020B0002F1A28C501F529C502F52AC503F52BC538
:1020C00004F52CC505F52DC506F52EC507F52FC55C
:1020D00008F588EC87F001C528F502C529F503C588
:1020E0002AF504C52BF5120003C509F504C50AF548
:1020F00001C507F502C508F510D009C5D9F40AC510
:10210000DAF4DF500B6E094A0A2A07C5D9F408C56C
:10211000DAF40BC5DFF4074A082A0506D8A006063C
:102120000528EBE10628D8B41200E7D701EE50F2FB
:1021300014EE00F0EE6AE550E150FCE1E250FAE105
:1021400001EE00F2500EEE6AE806FDE101EEB2F19A
:102150000F0EEE6AE806FDE10401080E5D6F000E49
:102160005E6F000E5F6F00010EEF89F0000E116EC2
:10217000000E106E0BD00FC502F5036A0DC504F5F5
:102180000EC505F536EC8FF0104A112A10500B24BD
:10219000D96E11500C20DA6EDF500F6E0F50D8B48C
:1021A0001200E9D701C505F502C506F503C5F6F429
:1021B00004C5F7F4034A042A000EF86E05C5D9F4E5
:1021C00006C5DAF4054A062A0800F5C4DFF4DF5034
:1021D000D8B41200EBD70150021003100410D8B489
:1021E00008D0000E011A000E021A000E031A800E0B
:1021F000041A01C501F502C502F503C503F504C5BE
:1022000004F51200A40EA86F050EA96F000E9A6FB8
:10221000000E9B6FA2C59CF5A3C59DF5A80E9E6FF1
:10222000050E9F6F07EC90F0120001500302F3C4FB
:1022300005F5F4C406F501500402F35006260250D9
:102240000302F350062605C501F506C502F5120086
:10225000016EB7A2FED701C5C9F21200AE9ACFC473
:06226000BEF511001100A3
:020000040020DA
:10000000FFFFFFFFFFFFFFFFFFFFFFFFFFFFFFFF00
:10001000FFFFFFFFFFFFFFFFFFFFFFFFFFFFFFFFF0
:10002000FFFFFFFFFFFFFFFFFFFFFFFFFFFFFFFFE0
:10003000FFFFFFFFFFFFFFFFFFFFFFFFFFFFFFFFD0
:020000040030CA
:080000008CFFFFF79FFFFFFFDB
:01000900FFF7
:00000001FF
